10700107835PURE DE MANZANA Y PERA 90GR. MAH        CNS0000000000000308300000000000000000003500000854688003309           
10700107840PURE DE MANZANA Y BANANA ORGANICO 90GR. CNS0000000000000308300000000000000000003500000854688003293           
10700107845PURE DE MANZANA 90GR. MAH               CNS0000000000000308300000000000000000003500000854688003286           
10700107846PURE FRUTOS DEL BOSQUE  90GR. MAH       CNS0000280000000308300000000000000000003600000854688003668           
10700107847PURE FRUTAS TROPICALES  90GR. MAH       CNS0000000000000308300000000000000000003600000854688003651           
10700107848PURE DE MELOCOTON FRESA MANZANA 90GR  MACNS0000000000000308300000000000000000003600000854688003644           
10700107849PURE DE FRUTAS Y VEGETALES 90GR. MAH    CNS0000000000000308301000000000000000003600000854688003682           
10700107850PURE DE MANZANA Y MANGO ORGANICO 90 GR. CNS0000000000000308300000000000000000003500000854688003330           
10700226552GALLETAS CLAS INF MAH FIRST COOKIES 100GCNS0000000000001058900000000000000000000100000854688003514           
10770107805FORMULA 0-6 MESES HMO+1 MAH             CNN0000000000004173100000000000000000002400000854688003002           
10770107806FORMULA MAYOR DE 6 MESES HM0+2 MAH      CNN0000450000004173100000000000000000002400000854688003033           
10770107807FORMULA MAYOR DE 2 AÑOS HMO+3 MAH       CNN0000310000003892900000000000000000002400000854688003842           
10770107820FORMULA PREMIUM 6-12 MES 400G.MAH X 1   CNN0000000000004973500000000000000000001200000854688003729           
10770107825ELIMINAR                                CNN0000000000003235700000000000000000001200000                       
10770107830FORMULA PREMIUM S/LAC 0-12MESES 400G.MAHCNN0000000000004867600000000000000000002400000854688003040           
10100241400NUCITA MERIENDITA D/S 6UND 20G MULTIPACKCNS00000000000009156000000000000000000024000001018455173             
10100241410PIRULIN LIME  ENVASE 190GR              CNS00000000000019059004000000000000000012000007591675014407          
10100241415PIRULIN DISP 25PAQ X 3UND 16GR          CNS00000000000035690004000000000000000006000007591675012984          
10100241420PIRULIN MAX CHOCO DISP 12 BARQUILLAS 34GCNS00000000000039987004000000000000000006000007591675013110          
10100241425PIRULIN COCO ESTUCHE 25 x  3UND X 16GR  CNS00000000000035005004000000000000000006000007591675013158          
10100241426PIRULIN COCO ENVASE 190GR               CNS00000000000019059004000000000000000012000007591675012847          
10100241427PIRULIN LIME ESTUCHE 3UND 16GR          CNS00000000000035005000000000000000000006000007591675000325          
10100241428TOMI ESTUCHE  6UND 12GR                 CNS00000000000017938000000000000000000006000007591675000349          
10100241430PIRULIN CHOCOLATE DISPENSADOR 12 X 60GR CNS00000000000074930004000000000000000004000007591675000127          
10100241435PIRULIN CHOCO LUJO 120GR EDICION ESPECIACNS00000000000012457004000000000000000024000007591675004767          
10100241465NUCITA TOPPING CREMA DE CACAO Y AVE 300GCNS00000000000018405000000000000000000006000007591675000097          
10100241470NUCITA D/S TUBITO DISPLAY 12 X 35G      CNS00000000000041669000000000000000000004000007591675014209          
10100241472NUCITA TUBITO D/SABOR 3UND 35G MULTIPACKCNS00000000000009903000000000000000000032000007591675012922          
10100241475NUCITA MERIENDITA D/S 12 X 20G          CNS00000000000019495004000000000000000006000007591675014247          
10100241480NUCITA D/S VASO DE PLASTICO 200G        CNS00000800000016443004000000000000000006000007591675000363          
10100241481NUCITA D/S VASO DE PLASTICO DISPLAY 85G CNS00001500000007568004000000000000000012000007591675000264          
10100241490NUCITA PREMIUM ENVASE 280G              CNS00000000000022361000000000000000000006000007591675013004          
10100241495PIRULIN CHOCOLATE ENVASE 300GR          CNS00010300000029648004000000000000000012000007591675010508          
10100241500NUCITA 12 TUBITO 35G CHOCOLATE          CNS00000000000041669000000000000000000004000007591675014223          
10100241505PIRULIN ENVASE 190GR CHOCOLATE          CNS00008600000019963004000000000000000012000007591675002145          
11900000001NUTRAMIGEN PREMIUM CON LGG 357GR GENIA CCNN00000000000097882000000000000000000012000007506205804847          
11900000002ENFAMIL PREMIUM PROMENTAL 375G ETAPA 1  CNN00001300000084117000000000000000000012000007506205808999          
11900000003ENFAMIL PREMIUM PROMENTAL 375G ETAPA 2  CNN00001200000081843000000000000000000012000007506205808944          
12900000001MAYONESA KRAFT 445G MONDELEZ            CNN00000100000014668007000000000000000012000007591114040042          
12900000002MAYONESA KRAFT 175G MONDELEZ            CNN00000800000007848005000000000000000024000007622201512279          
12900000003CHEEZ WHIZ  198G  MONDELEZ              CNN00000000000011367000000000000000000012000007622201640767          
12900000005TANG NARANJA 12SOBRES 20G MONDELEZ      CNN00000000000096449000000000000000000008000007590011891962          
12900000006TANG MORA 12SOBRES  20G  MONDELEZ       CNN00000000000096449000000000000000000008000007590011892525          
12900000007TANG PARCHITA 12SOBRES 20G  MONDELEZ    CNN00000000000096449000000000000000000008000007590011891986          
12900000010CLUB SOCIAL INTEGRAL 6S 156G MONDELEZ   CNS00010500000004765002000000000000000030000007622210611307          
12900000011CLUB SOCIAL ORIGINAL  6S 156G MONDELEZ  CNS00006200000004640005000000000000000030000007622210610652          
12900000012OREO CONFETI TUBO 108GR MONDELEZ        CNS00000000000003675000000000000000000048000007622201705848          
12900000013BELVITA KRAKER 9S  234GRS MONDELEZ      CNS00000000000008253007000000000000000020000007590011890866          
12900000014BELVITA HONY 9S OW  252G MONDELEZ       CNS00000000000008253007000000000000000020000007590011890910          
12900000015SODA PREMIUM 6S  OW  156GR  MONDELEZ    CNS00001200000004080002000000000000000024000007622210711069          
12900000016OREO VAINILLA  6S 216G MONDELEZ         CNS00000000000006914004000000000000000024000007622210615183          
12900000017OREO VAINILLA TUBO 108G MONDELEZ        CNS00000000000003768000000000000000000048000007590011116607          
12900000018OREO CHOCOLATE  6S  216G MONDELEZ       CNS00000000000006883004000000000000000024000007622210613226          
12900000019OREO CHOCOLATE TUBO 108GRS MONDELEZ     CNS00000000000003862005000000000000000048000007590011117604          
12900000020OREO AMERICANO 6S  216G MONDELEZ        CNS00000000000006883004000000000000000024000007622210615190          
12900000021OREO AMERICANO TUBO 108G MONDELEZ       CNS00000000000003862005000000000000000048000007590011151615          
12900000022OREO FRESA 6S 216G MONDELEZ             CNS00000000000006883004000000000000000024000007622210615589          
12900000023OREO FRESA TUBO 108G MONDELEZ           CNS00000000000003768005000000000000000048000007622210772510          
12900000024OREO CAFE 6S  216G MONDELEZ             CNS00000000000006727000000000000000000024000007622210654540          
12900000025OREO CAFÉ TUBO 108G MONDELEZ            CNS00000000000003675000000000000000000048000007622210649546          
12900000026OREO CHOCOLATE NAV 6S  216G MONDELEZ    CNS00000000000137838000000000000000000024000007590011891245          
12900000027OREO CHOCOLATE NAV 108G MONDELEZ        CNS00000000000156306000000000000000000048000007590011117659          
12900000028OREO VAINILLA NAV 6S  216G MONDELEZ     CNS00000000000005201000000000000000000024000007590011891238          
12900000029OREO VAINILLA NAVIDAD OW 48 108G MONDELECNS00000000000156306000000000000000000035000007622201639075          
12900000030OREO CONFETI  6S 216G MONDELEZ          CNS00000000000006727000000000000000000024000007622201705817          
12900000031CHIPS AHOY 6S 168 GRS  MONDELEZ         CNS00000000000007412000000000000000000032000007622201103675          
12900000032MINI CHIPS VAINILLA 180GR MONDELEZ      CNS00001400000004827002000000000000000024000007590011893041          
12900000033SORBETICOS VAINILLA 4S MONDELEZ         CNS00009400000003613004000000000000000028000007590011890972          
12900000034SORBETICOS FRESA 4S MONDELEZ            CNS00003400000003613004000000000000000028000007590011890965          
12900000035SORBETICOS AREQUIPE 4S MONDELEZ         CNS00000000000003613004000000000000000028000007622210648969          
12900000036TRIDENT CHICLE MENTA 5UND DISPLAY 18 PAQCNS00000500000035659000000000000000000030000007622201776657          
12900000037TRIDENT SLAB YERBABUENA 5UND X 18 PAQ   CNS00000000000034880000000000000000000030000007622201776565          
12900000038OREO FUDGE OW 6'S (168G)                CNS00000000000008845004000000000000000024000007622201736132          
12900000039SORBETICO COCO 4S                       CNS00000000000004703000000000000000000024000007622201736101          
12900000040TRIDENT SLAB MORA 5UND DISPLAY 18PAQ    CNS00000000000034880000000000000000000030000007622201776688          
12900000041HALLS 9S EXTRA STRONG 12 PAQ            CNS00000000000023233000000000000000000030000007622210426987          
12900000042TRIDENT SLAB SADIA 5UND DISPLAY 18PAQ   CNS00000000000023731001000000000000000030000007622201776626          
12900000043HALLS 9S CHERRY LYPTUS 12PAQ            CNS00000000000023233000000000000000000030000007622210426963          
12900000044BUBBALOO CEREZA                         CNS00000000000015665000000000000000000024000007622201769956          
12900000045BUBBALOO FRUTA                          CNS00000000000015665000000000000000000024000007622201769987          
12900000046BUBBA SPARKIES 20S X 25GR               CNS00000000000023233000000000000000000024000007702133462160          
12900000047OREO NAVIDAD AMERICANA TUBO 108G MONDELECNS00000000000003768006000000000000000024000007622201731151          
12900000048HALLS 9S MENTHA-LYPTUS 12 PAQ           CNS00000000000023233000000000000000000030000007622210426970          
12900000049OREO NAVIDAD AMERICANA OW  206G MONDELEZCNS00000000000003768004000000000000000024000007622201731120          
12900000050BELVITA HONY MANZANA CANELA 9S 252G MONDCNS00000000000008097008000000000000000020000007622201736163          
12900000060OREO VAINILLA 6S 192G MONDELEZ          CNS00001700000007069004000000000000000024000007622202213700          
12900000061OREO CHOCOLATE 6S 192G MONDELEZ         CNS00000000000007069004000000000000000024000007622202213670          
12900000062OREO FRESA 6S 192G MONDELEZ             CNS00001900000007069004000000000000000024000007622202213731          
12900000070OREO FRESA TUBO 96 GR MONDELEZ          CNS00004200000003862005000000000000000024000007622202213632          
12900000080OREO AMERICANO TUBO 96G MONDELEZ        CNS00000300000003675005000000000000000048000007622202213656          
12900000081OREO CHOCOLATE TUBO 96G MONDELEZ        CNS00000300000003675005000000000000000048000007622202213595          
12900000082OREO AMERICANO 6S  192G MONDELEZ        CNS00000000000007069004000000000000000024000007622202213762          
12900000100OREO FUDGE OW 6'S (156G)                CNS00001500000008627004000000000000000000000007622202228735          
12900000101OREO VAINILLA TUBO 96G MONDELEZ         CNS00000300000003862005000000000000000000000007622202213618          
14700000001MANI MIX VERANO 40GR 24 UNID MANITOBA MYCNS00000000000004360000000000000000000096000007702409012273          
21400000021TE LIMON Y JENGIBRE CON PROBIOTICOS BIGECNS0000000000003011500000000000000000000600000072310818507           
21400000022TE I LOVE LIMON PLUS BIGELOW VIT C 20 SOCNS0000020000002553700000000000000000000600000072310888524           
12100000001RUFFLES QUESO 125GR  MEDIANO            CNS00000000000010900000000000000000000018000007591206114378          
12100000002RUFFLES QUESO 300GR  GRANDE             CNS00000000000023700000000000000000000008000007591206114439          
12100000003NATUCHIPS PLATANITOS MAD 150GR  MEDIANO CNS00000000000011492000000000000000000018000007591206007540          
12100000004NATUCHIPS PLATANITOS NAT 300GR  GRANDE  CNS00000000000015571000000000000000000012000007591206006512          
12100000005NATUCHIPS PLATANITOS NAT 150GR MEDIANO  CNS00000000000009467000000000000000000018000007591206006505          
12100000006NATUCHIPS PLATANITO ONDULADOS 145G MEDIACNS00000000000009467000000000000000000018000007591206114262          
12100000007NATUCHIPS PLATANITOS ONDULADOS 245GR GRACNS00000000000015571000000000000000000012000007591206114330          
12100000008JACKS TORTILLITAS PICANTE 190GR MEDIANO CNS00000000000007443000000000000000000016000007591206114149          
12100000009DORITOS MEGA QUESO 150GR  MEDIANO       CNS00000000000007568000000000000000000020000007591206003252          
12100000010MANI SALADO 25GR  x 6 PEQUEÑO           CNS00000000000016007000000000000000000180000007591206012636          
12100000011MANI JACKS 175GR  MEDIANO               CNS00000000000008595000000000000000000036000007591206012834          
12100000012CHEETOS MEGA PUFFS 270GR GRANDE         CNS00000000000012862000000000000000000008000007591206114682          
12100000013CHEESE TRIS XXL 450GR  GRANDE           CNS00000000000013703000000000000000000008000007591206113326          
12100000014DORITOS XXL 420GR  GRANDE               CNS00000000000019215000000000000000000008000007591206113319          
12100000015CHEETOS MEGA PUFFS 28GR x 12  PEQUEÑO   CNS00000000000028309000000000000000000096000007591206114668          
12100000016CHEETOS BOLIQUESO 28GR X 12 UND PEQUEÑO CNS00000000000021364000000000000000000096000007591206114699          
12100000017CHEESE TRIS 54GR x 12  PEQUEÑO          CNS00000000000028309000000000000000000096000007591206010328          
12100000018RUFFLES NATURAL 36GR X 12 PEQUEÑO       CNS00000000000038960000000000000000000072000007591206114347          
12100000019RUFFLES QUESO 36GR  x 12 PEQUEÑO        CNS00000000000038960000000000000000000072000007591206114361          
12100000020JACKS TORTILLITAS PICANTES 40G 12 UNID  CNS00000000000028309000000000000000000072000007591206114835          
12100000021CHEESE TRIS 150GR  MEDIANO              CNS00000000000005107000000000000000000022000007591206000381          
12100000022RUFFLES NATURAL 125GR MEDIANO           CNS00000000000010900000000000000000000018000007591206114354          
12100000023RUFFLES NATURAL 300GR  GRANDE           CNS00000000000023700000000000000000000008000007591206114422          
12100000024NATUCHIPS PLATANITOS NATURAL 42G 12 PEQUCNS00000000000037371000000000000000000072000007591206006925          
12100000025NATUCHIPS MADURITOS 42G 12 PEQ          CNS00000000000038960000000000000000000072000007591206007533          
12100000026NATUCHIPS PLATANIT ONDUL 38G 12PEQ      CNS00000000000037371000000000000000000072000007591206114255          
12100000027DORITOS MEGA QUESO 22G 12PEQ            CNS00000000000096107000000000000000000072000007591206128054          
12100000028RUFFLES QUESO 22G 12PEQUEÑO             CNS00000000000096107000000000000000000072000007591206128030          
12100000029CHEETOS BOLIQUESO 110GR MEDIANO         CNS00000000000004360000000000000000000036000007591206114705          
12100000030CHEETOS MEGA PUFFS 110GR MEDIANO        CNS00000000000005512000000000000000000036000007591206114675          
12100000031DORITOS MEGA QUESO 45GR x 12  PEQUEÑO   CNS00000000000032046000000000000000000072000007591206002521          
12100000032TOSTITOS 140GR MEDIANO                  CNS00000000000004796000000000000000000016000007591206282787          
12100000033TORTILLITAS JACKS QUESO 190GR MEDIANO   CNS00000000000007443000000000000000000016000007591206282558          
12100000034TORTILLITAS JACKS QUESO 40G 12 PEQUEÑO  CNS00000000000028309000000000000000000072000007591206282541          
12100000035PAPAS JACK' S QUESO 30G 12PEQUEÑO       CNS00000000000131329000000000000000000072000007591206282572          
12100000036PAPAS JACK' S SAL 30G 12 PEQUEÑO        CNS00000000000032046000000000000000000072000007591206282602          
12100000037PAPAS JACK' S SAL 30G 12BOLSAS PEQ      CNS00000000000178324000000000000000000070000007591206282596          
12100000038DE TODITO RESUELTO 400GR GRANDE         CNS00000000000016007000000000000000000008000007591206282671          
12100000039DE TODITO RESUELTO 45G 12PEQUEÑO        CNS00000000000032046000000000000000000072000007591206282695          
12100000040DE TODITO RESUELTO 130GR MEDIANO        CNS00000000000006665000000000000000000018000007591206282688          
12100000041NATUCHIPS PLATAN NATURAL 22G 12PEQ      CNS00000000000096107000000000000000000072000007591206282985          
12100000042MINI NATUCHIPS PLATANITOS NATURAL 22G 12CNS0000000000009610700000000000000000007200000759120628298           
12100000043TOSTITOS 400GR GRANDE                   CNS00000000000011336000000000000000000008000007591206282862          
12100000044CHEESE TRIS PICANTES 145G MEDIANO       CNS00000000000020025000000000000000000018000007591206282909          
12100000045CHEESE TRIS PICANTES 45G 12PEQUEÑO      CNS00000000000114263000000000000000000096000007591206282893          
12100000046CHEETOS BOLIQUESO XXL 180G GRANDE       CNS00000000000007412000000000000000000008000007591206284712          
12100000047TORTILLITAS PICANTE 350G GRANDE         CNS00000000000013267000000000000000000008000007591206284767          
12100000048TORTILLITAS QUESO 350GR GRANDE          CNS00000000000013267000000000000000000008000007591206284750          
12100000049NATUCHIP PLATANITOS 80GR MED            CNS00000000000005325000000000000000000024000007591206284972          
12100000050PEPITO 180G GRANDE                      CNS00000000000007443000000000000000000008000007591206285276          
12100000051PEPITO 25G 12BOLSAS PEQ                 CNS00000000000021364000000000000000000096000007591206285252          
12100000052PEPITO JUMBO 18G 12 BOLSAS PEQ          CNS00000000000017627000000000000000000096000007591206285238          
12100000053PEPITO 80G MEDIANO                      CNS00000000000003519000000000000000000036000007591206285269          
12100000054PEPITO JUMBO 65G MEDIANO                CNS00000000000002896000000000000000000036000007591206285245          
12100000055TOSTON JACKS 45G 12BOLSAS PEQ           CNS00000000000032046000000000000000000024000007591206285290          
12100000056NATCHP AJO Y PEREJIL 75GR MEDIANO       CNS00000000000005419000000000000000000024000007591206285306          
12100000058PAPAS JACK'S SAL 80GR MEDIANO           CNS00000000000006665000000000000000000018000007591206285337          
12100000059MANI SALADO JACKS 25G 24PAQ             CNS00000000000058735000000000000000000000000007591206003450          
12100000060CHICHARRON 20G 12 PEQ                   CNS00000000000035783000000000000000000072000007591206000770          
12100000061CHEETOS FLAMING HOT 38G PEQ             CNS00000000000002367000000000000000000096000007591206003467          
12100000062CHEETOS FLAMING HOT 120G GRANDE         CNS00000000000005512000000000000000000072000007591206003474          
12100000063DORITOS FLAMIN HOT 42G PEQ              CNS00000000000002678000000000000000000072000007591206003481          
12100000064DORITOS FLAMIN HOT 140G GRANDE          CNS00000000000002678000000000000000000072000007591206003498          
19600000001BARRA CHOCOLATE CRUNCHY PEAN BUTT 45GR 1CNS0000000000000847100000000000000000000100000691535207929           
19600000002BARRA CHOCOLATE BROWNIE CRUNCH 45GR 12UNCNS0000000000000847100000000000000000000100000691535201927           
19600000003BARRA CHOCOLATE ESPRESSO 45GR 12UND GUDSCNS0000000000000847100000000000000000000100000691535209923           
19600000004BARRA VAINILLA Y YOGURT 50GR 12UND GUDS CNS0000000000000647800000000000000000000100000691535505032           
19600000005BARRA CHOCOLATE CHIP  50GR 12UND GUDS SUCNS0000000000000847100000000000000000000100000691535521015           
19600000006BARRA CHOCOLATE ALMOND 50GR 12UND GUDS SCNS0000000000000847100000000000000000000100000691535522012           
19600000007BARRA CHOCOLATE PEANUT BUTTER CUP 50GR 1CNS0000000000000847100000000000000000000100000691535527017           
19600000008MANI HAPPY MIX 40GR 12UND GUDS SUPPLY   CNS0000000000000323900000000000000000000100000601202050840           
19600000009MANI CRUNCHY 40GR 12UND MANI+MAIZ+ALMEN+CNS0000000000000323900000000000000000000100000601202050857           
19600000010MAIZ HO MIX 40GR MAIZ+ARANDANOS 12UND GUCNS0000000000000323900000000000000000000100000601202050833           
19600000011SNACK MAIZ Y QUINOA 12G 6UND GUDS SUPPLYCNS00000000000002990000000000000000000012000007707322030649          
19600000012ROSQUITAS QUINOA PICANTE 12G 6UND GUDS SCNS00000000000003581000000000000000000012000007707322030007          
19600000013ROSQUITAS QUINOA NATURAL 12G 6UND GUDS SCNS00000000000003581000000000000000000012000007707322030052          
19600000015CHOCOLISTO BOLSA  200GR  GUDS SUPPLY    CNS00000000000005388000000000000000000024000007702007216127          
19600000016CHOCOLATE BIANCHI BARRA XL 40GR 12UND GUCNS00000000000014731000000000000000000012000007702993047934          
19600000017CHOCOLATE BIANCHI BARRA BL XL 40GR 12UNDCNS000000000000147310000000000000000000120000007702993042625         
19600000018CARAMELOS BIANCHI BLANCO 400GR BOLSA 100CNS00012800000007568000000000000000000018000007702993022283          
19600000019CARAMELOS BIANCHI CHOCO 400GR BOLSA 100UCNS00009400000007568000000000000000000018000007702993902103          
19600000020CHOCOLATE BIANCHI CHOCOLORES BOLSA 50GR CNS00000000000001993000000000000000000024000007702993048894          
19600000021CARAMELOS CAFE GURME BOLSA  50UND GUDS SCNS00004700000005761000000000000000000036000007702993016039          
19600000022CARAMELOS CHAO MENTA BOLSA 380G 100UND GCNS00007400000007007000000000000000000024000007702993051016          
19600000023CARAMELOS  MENTA HELADA BOLSA 100UND GUDCNS00000500000005668000000000000000000024000007702993035221          
19600000024GOMITAS TRULULU AROS BOLSA 80GR GUDS SUPCNS00000000000001962000000000000000000024000007702993048092          
19600000025GOMITAS TRULULU FRESITAS BOLSA 80GR GUDSCNS00008000000001962000000000000000000024000007702993047583          
19600000026GOMITAS TRULULU GUSANOS BOLSA 80GR GUDS CNS00002200000001962000000000000000000024000007702993048061          
19600000027GOMITAS TRULULU GUSANOS AC  BOLSA 80GR GCNS00000000000001962000000000000000000024000007702993028261          
19600000028GOMITAS TRULULU SABORES BOLSA 90GR GUDS CNS00025800000001962000000000000000000024000007702993028483          
19600000029GOMITAS TRULULU SANDIA BOLSA 80GR GUDS SCNS00000000000001962000000000000000000024000007702993047620          
19600000030CHOCOLATE JET LECHE 6GR BOLSA 24UND GUDSCNS00000000000006571000000000000000000024000007702007002683          
19600000031CHOCOLATE  JET SURTIDO 6GR  BOLSA 24UND CNS00000000000006571000000000000000000024000007702007005592          
19600000032CHOCOLATE JET LECHE 12GR 24UNID GUDS SUPCNS00000000000013080000000000000000000012000007702007030112          
19600000033CHOCOLATE JET LECHE 50GR 12UNID GUDS SUPCNS00000000000055060000000000000000000022000007702007512304          
19600000034CHUPETAS LOKIÑO FRESA BOLSA 24UND GUDS SCNS00003000000005917000000000000000000015000007702993020890          
19600000035CHUPETAS  YOGGER  BOLSA  24UND GUDS SUPPCNS00000000000006447000000000000000000015000007702993040683          
19600000036CHOCOLATE JET LECHE 30GR 16UNID GUDS SUPCNS00000000000022547000000000000000000016000007702007032734          
19600000070CARAMELOS CHAO SANDIA BOLSA 350G 100UND CNS00006100000007007000000000000000000024000007702993051023          
25800000001CAREFREE PROTEC C/PERFUM 100UNID  DIVAR CNS00001200000022952000000000000000000012000007702031501442          
25800000002CAREFREE PROTEC C/PERFUM 60UNID  DIVAR  CNS00002200000016537000000000000000000024000007702031504474          
25800000003CAREFREE PROTEC C/PERFUM 25UNID  DIVAR  CNS00002400000007474000000000000000000024000007702031500315          
25800000004CAREFREE PROTEC C/PERFUM 15UNID  DIVAR  CNS00003200000004640000000000000000000036000007702031500605          
25800000005CAREFREE DIARIA 100UNID  DIVAR          CNS00000000000022423000000000000000000020000007790010616751          
25800000006CAREFREE DIARIA 60UNID  DIVAR           CNS00001800000015727000000000000000000024000007702031969341          
25800000007CAREFREE DIARIA 25UNID  DIVAR           CNS00002100000007474000000000000000000024000007702031504009          
25800000008CAREFREE DIARIA 15UNID  DIVAR           CNS00003200000004671000000000000000000036000007702031501398          
25800000009JBABY ACEITE ANTES D/DORMIR 100ML DIVAR CNS00000000000011367000000000000000000012000007702031734628          
25800000010JBABY ACONDIC ORIGI GOLD 400ML DIVAR    CNS00000000000020617000000000000000000012000007702031293439          
25800000011JBABY ACONDIC MANZAN 400ML DIVAR        CNS00000500000020617000000000000000000012000007702031293323          
25800000012JBABY ACONDIC GOTAS BRILL 200ML DIVAR   CNS00000000000012115000000000000000000012000007702031293415          
25800000013JBABY BAÑO LIQ PIE A CABEZ 400ML DIVAR  CNS00000800000027468000000000000000000012000007702031318316          
25800000014JBABY BAÑO LIQ PIE A CABE 200ML DIVAR   CNS00000300000016661000000000000000000012000007702031318293          
25800000015JBABY COLONIA SONRISA 200ML DIVAR       CNS00000200000016848000000000000000000012000007702031515203          
25800000016JBABYCREMA LIQUIDA 200ML DIVAR          CNS00000100000012893000000000000000000012000007891010037185          
25800000017JBABYCREMA LIQU ANTES DORMIR  200ML DIVACNS00000600000013578000000000000000000012000007702031036746          
25800000018JBABYCREMA LIQUIDA AVENA  200ML DIVAR   CNS00000000000013578000000000000000000012000007891010046859          
25800000019JBABYCREMA PEINAR HIDR INTENS  200ML DIVCNS00000200000014637000000000000000000012000007702031878452          
25800000020JBABY SHAMPOO ORIGINAL GOLD 400ML DIVAR CNS00000000000019589000000000000000000012000007702031291510          
25800000021JBABY SHAMPOO ORIGINAL GOLD 200ML DIVAR CNS00001800000012146000000000000000000012000007702031291565          
25800000022JBABY SHAMPOO ORIGINAL GOLD 100ML DIVAR CNS00002400000008440000000000000000000012000007702031291534          
25800000023JBABY SHAMPOO CABE/OSCURO 400ML DIVAR   CNS00001300000020617000000000000000000012000007702031293293          
25800000024JBABY SHAMPOO CABE/OSCURO 200ML DIVAR   CNS00000000000012146000000000000000000012000007702031293286          
25800000025JBABY SHAMPOO CABEL/OSC 100ML DIVAR     CNS00000600000008409000000000000000000012000007702031293262          
25800000026JBABY SHAMPOO MANZANILLA 400ML DIVAR    CNS00000900000019589000000000000000000012000007702031293248          
25800000027JBABY SHAMPOO MANZANILLA 200ML DIVAR    CNS00001000000012146000000000000000000012000007702031293231          
25800000028JBABY SHAMPOO MANZANILLA 100ML DIVAR    CNS00002100000008440000000000000000000012000007702031293217          
25800000029JBABY SHAMPOO HIDRA/INTENSO 400ML DIVAR CNS00000400000019589000000000000000000012000007702031293194          
25800000030LUBRIDERM PIEL SENSIBLE 120ML DIVAR     CNS00003300000010121000000000000000000012000007702035455055          
25800000031STAYFREE ADAPT PLUS ULTRADELG 42UNI DIVACNS00004300000025101000000000000000000012000007702031433057          
25800000032STAYFREE NORMAL CON ALAS  42UNI DIVAR   CNS00004300000025101000000000000000000012000007702031580010          
25800000033LISTERINE COOLMINT 1L DIVAR             CNS00000000000028029000000000000000000006000007702035432506          
25800000034LISTERINE COOLMINT 500ML DIVAR          CNS00003100000018623000000000000000000012000007702035432339          
25800000035LISTERINE COOLMINT 360ML DIVAR          CNS00005600000014170000000000000000000024000007702035432216          
25800000036LISTERINE COOLMINT 180ML DIVAR          CNS00014600000008751000000000000000000012000007702035432117          
25800000037LISTERINE COOLMINT ZERO 500ML DIVAR     CNS00002200000018623000000000000000000012000007891010974336          
25800000038LISTERINE COOLMINT ZERO 360ML DIVAR     CNS00013300000014170000000000000000000024000007702031563334          
25800000039LISTERINE CUIDADO TOTAL  180ML DIVAR    CNS00009000000009997000000000000000000012000007702035833815          
25800000040LISTERINE CUID/TOTAL ZERO 500ML DIVAR   CNS00000000000020367000000000000000000012000007702031887942          
25800000041LISTERINE ORIGINAL 500ML DIVAR          CNS00010800000019900000000000000000000012000007702035431110          
25800000042LISTERINE ORIGINAL 180ML DIVAR          CNS00013600000009218000000000000000000012000007702035431219          
29200226560GALLETAS CHOCO MUCHO 5 BOLSAS 175G      CNS00000000000007910000000000000000000001000007597409000012          
29200226565GALLETAS VACA MUCHO 5 BOLSITAS 175G     CNS00000000000007412000000000000000000001000007597409000029          
40700053105CHOCOZOO CHUPETA CHOCO-LECH DISP 24X15G CNS00000000000038648000000000000000000006000007591720031571          
40700053110CHOCOZOO CHUPETA CHOCOL-LECHE BOL 15GX6 CNS00000000000009654000000000000000000024000007591720029097          
40700053115CHOCOZOO BLANCO CRUJIENTE  24X15GR      CNS00000000000038648000000000000000000006000007591720031588          
40700053116DOÑA JIMENA TURRON DURO CON ALMENDRA Y MCNS00000000000021489000000000000000000015000008410330113752          
40700053117DOÑA JIMENA TURRON BLANDO CON ALMENDRA YCNS00000000000016911000000000000000000015000008410330113769          
40700053118DOÑA JIMENA TURRON BLANDO CON MANI  Y MICNS00000000000010433000000000000000000015000008410330115008          
40700053119DOÑA JIMENA TURRON DURO CON MANI Y MIEL CNS00000000000010433000000000000000000015000008410330115015          
40700053120CHOCOZOO CHUP CHOC-BLAN CRUJ BOLS 15GX6 CNS00000000000009654000000000000000000024000007591720030666          
40700053121DOÑA JIMENA TURRON DURO CON MANI Y CARAMCNS00000000000010433000000000000000000015000008410330115022          
40700053122DOÑA JIMENA SURTIDO DE BISCOCHOS Y GALLECNS00000000000020835000000000000000000010000008410330201237          
40700063817GRAGEADO FRUTOS MIXTOS NAVIDAD 85G ST MOCNS00000000000009374000000000000000000024000007591720029929          
40700063818GRAGEADO PASAS  NAVIDAD 85G ST MORITZ   CNS00000000000009405000000000000000000001000007591720030260          
40700063819GRAGEADO PASAS 12X40G ST MORITZ         CNS00000500000040019000000000000000000004000007591720031946          
40700063820GRAGEADO AVELLANAS NAVIDAD 85G ST MORITZCNS00000000000010371000000000000000000024000007591720030277          
40700063821GRAGEADO ALMENDRAS NAVIDAD 85G.ST MORITZCNS00000000000010371000000000000000000024000007591720030284          
40700063822GRAGEADO FRUTOS MIXTOS S/AZUCAR 12X40G SCNS00000200000049361000000000000000000004000007591720032028          
40700063823GRAGEADO MANI S/AZUCAR 12 X 40G ST MORITCNS00000300000044690000000000000000000004000007591720032011          
40700086545DUNGA CHOCOLATE 12UND DISPLAY 420G      CNS00000000000027624000000000000000000006000007591720031229          
40700086550DUNGA BLANCO DISPLAY 35GX12             CNS00000000000027624000000000000000000006000007591720031489          
40700086555DUNGA MALTA DISPLAY 12 X 35GR           CNS00000000000027624000000000000000000006000007591720003806          
40700104715FLAQUITO DISPENSADOR 12 BARQUILLAS X 30GCNS00001400000015509000000000000000000012000007591720029615          
40700104720FLAQUITO 2 BARQUILLAS X 30G             CNS00003100000002585000000000000000000040000007591720029639          
40700104725FLAQUITO 4 BARQUILLAS X 30GR            CNS00002400000005201000000000000000000024000007591720029622          
40700104726FLAQUITO ANIVERSARIO 5 BARQUILLAS  30GR CNS00000000000004609000000000000000000024000007591720034190          
40700104730FLAQUITO LATA 8 BARQUILLAS X 30GR       CNS00002500000014077000000000000000000012000007591720031151          
40700104735FLAQUITO NEVADO DISPENSADOR 12 BARQUILLACNS00001600000015540000000000000000000012000007591720030468          
40700104740FLAQUITO NEVADO 2 BARQUILLAS X 30GR     CNS00000000000002585000000000000000000040000007591720031564          
40700104745FLAQUITO NEVADO LATA 8 BARQUILLAS X 30GRCNS00000900000014108000000000000000000012000007591720029912          
40700104750FLAQUITO NEVADO 4 BARQUILLAS X 30GR     CNS00000300000005201000000000000000000024000007591720031205          
40700104755FLAQUITO NAVIDAD NEVADO 4 BARQUILLAS X 3CNS00000000000005076000000000000000000001000007591720031410          
40700105115GRAGEADO MANI 12X40GR ST MORITZ         CNS00000500000042323000000000000000000004000007591720031953          
40700105118GRAGEADO NARANJA BITTER 12X40GR ST MORITCNS00000200000044690000000000000000000004000007591720031960          
40700105120GRAGEADO FRUTOS MIXTOS 12 X 40G ST MORITCNS00000000000047026000000000000000000004000007591720031939          
40700231705STADIUM CHOCOLATE DE LECHE DISP 15X25GR CNS00001200000015789000000000000000000012000007591720031830          
40700231710STADIUM CHOCOLATE BLANCO DISP 15X25GR   CNS00000700000015758000000000000000000012000007591720032134          
40700258455PANETTONE PANDORO C/CHOCO 600G          CNS00000000000043164000000000000000000012000007591720030598          
40700258456PANETTONE C/CHOCOLATE Y CONCHA D NARANJACNS00000000000045998000000000000000000012000007591720033452          
40700258460PANETTONES EXTRA CHOCOLATE 500G ST MORITCNS00000000000039614000000000000000000016000007591720029103          
40700258465PANETTONES C/EXTRA CHOCOLATE 800GR ST MOCNS00000000000000156000000000000000000012000007591720029110          
407002584661880 BARRA TURRON DURO C/ALMENDRA Y MIELCNS00000000000001026000000000000000000015000008410317117124          
40700258467BOMBONES CORAZON FOIL BOLSA 120G ST MORICNS00003000000010620000000000000000000024000007591720033148          
20300035845NESTLE SAVOY 75 ANIVERSARIO LECHE MINI 2CNS00001400000040019002000000000000000016000007591016155547          
20300035850NESTLE SAVOY 75 ANIVERSARIO DARK MINI 25CNS00000000000040019000000000000000000056000007591016155554          
20300053102RIKITI CHOCO MANI 30GR X 12 UNID        CNS00000000000038181002000000000000000024000007591016154687          
20300053105RIKITI CHOCO MANI 130G X 5 UNID         CNS00000000000056150002000000000000000016000007591016154144          
20300075305COCOSETTE FUDGE 32GR X 20 UNID          CNS00000500000052725002000000000000000016000007591016154953          
20300075310COCOSETTE MAXI 50GR X 18 UNID           CNS00002700000050732002000000000000000012000007591016171080          
20300075320COCOSETTE MINI 25 GR X 18 UNID          CNS00000200000031112002000000000000000024000007591016154922          
20300075326COCOSETTE MAXI GALLETA 50G X 4 UNID (1x2CNS00005300000011274002000000000000000060000007591016171806          
20300100605SAVOY LECHE 30GR X 12 UNID.             CNS00001200000038181002000000000000000024000007591016151136          
20300100610SAVOY LECHE 70GR X 9 UNID.              CNS00000600000058112002000000000000000016000007591016151198          
20300100612POSTRE 100% CACAO POLVO 200G            CNS00000000000164403000000000000000000001000007591016205105          
20300100615SAVOY CHOCODUO 130GR X 5 UNID           CNS00001300000056150002000000000000000016000007591016155424          
20300100617SAVOY LECHE 130GR X 5 UNID              CNS00001000000056150002000000000000000016000007591016151112          
20300100621PRESTIGIO CHOCOLATE  X 30 UNIDADES 33G  CNS00001700000072282002000000000000000018000007891000460214          
20300100622KIT KAT 4 FINGER LECHE 24 UNID          CNS00000300000088383002000000000000000024000007891000248775          
20300100623KIT KAT MINIMOMENTS CARAMELO 24 UNID    CNS00000000000088383002000000000000000024000007891000349748          
20300100633NESTLE SAVOY NAVIDAD 70G X 9 UNID       CNS00000000000047462000000000000000000016000007591016155004          
20300100635NESTLE SAVOY 75 ANIVERS.100G X 10       CNS00000400000086390002000000000000000012000007591016154694          
20300100636DELIGHT CHOCOLATE 100GR  6UND SAVOY     CNS00000000000087823000000000000000000016000007591016855584          
20300100642CARRE MINI AVELLANAS 16 X 25G           CNS00001600000056742002000000000000000016000007591016150306          
20300100645POSTRE 40% CACAO 200G X 4 SAVOY         CNS00001600000059638002000000000000000016000007591016155080          
20300100648NESTLE ESPECIALIDADES BOMBOM 251GR      CNS00000700000014513002000000000000000030000007613039352151          
20300100650POSTRE 55% CACAO 200G X 4 SAVOY         CNS00001500000059638002000000000000000016000007591016155097          
20300100660CHARGE CHOCOLATE 30UND 40G              CNS00000000000054562002000000000000000012000007891000464908          
20300100662CHOKITO CHOCOLATE 30UND 32G             CNS00001300000039551002000000000000000018000007891000003299          
20300100665NESTLE DARK 75 ANIVERSARIO 100MG 10UND  CNS00000800000086390002000000000000000012000007591016155073          
20300175463CARRE AVELLANA 100G X 10UND SAVOY       CNS00000200000121395002000000000000000012000007591016152102          
20300175470CARRE CARAMELO OSCURO 100G 10UND SAVOY  CNS00001100000121395002000000000000000012000007591016155431          
20300175471CHOCOTRIO CLASICO 12UND 90GR            CNS00000000000082373000000000000000000004000007891000377543          
20300175472CHOCOTRIO MANI 12UND 90GR               CNS00000000000082373000000000000000000004000007891000377642          
20300175473CHOCOTRIO CHOCOLATE 12UND 90GR          CNS00000000000082373000000000000000000004000007891000377598          
20300200205KIT KAT WHITE 4 FINGER 41.5G            CNS00000400000088383002000000000000000024000007891000249239          
20300200210KIT KAT DARK 4 FINGER 41.5G             CNS00000400000088383002000000000000000024000007891000248829          
20300220608SAMBA CHOCOLATE DISP 32GR X 20 UNID     CNS00000100000043631002000000000000000016000007591016173473          
20300220610SAMBA AVELLANA CARLTON 32G X 20 UNID    CNS00000000000052725000000000000000000016000007591016870525          
20300220620SAMBA FRESA DISP 32 GR X 20 UNID.       CNS00000900000043631002000000000000000016000007591016173435          
20300220621SAMBA FRESA FUN SIZE 35UND 16G          CNS00000400000049330000000000000000000008000007591016155448          
20300220622SAMBA FRESA 32G  X 4 UNID. (128g)       CNS00000000000006758000000000000000000044000007591016855157          
20300226541GALAK CHOCOLATE BLANCO 30GR X 12 UNID   CNS00002100000038181002000000000000000024000007591016154977          
20300226543GALAK CHOCOLATE BLANCO 130G X 5 UNID    CNS00000300000057739002000000000000000016000007591016154960          
20300226547GALAK CHOCOLATE TUBITO 30 X 16G         CNS00000000000030022002000000000000000032000007891008212525          
20300235475SUSY CHOCOLATE MAXI 50GR X 18 UNID      CNS00001800000050732002000000000000000012000007591016171066          
20300235480SUSY MAXI GALLETA 50G X 4 UNID (1x200g) CNS00005800000011274002000000000000000060000007591016173121          
20300235485SUSY MINI 25GR X 18 UNID                CNS00000000000031112002000000000000000024000007591016154946          
20300235487SUSY CHOCO2  50G X 18 UNID DISP         CNS00001000000050732002000000000000000012000007591016854730          
20300235490SUSY CHOCO2  50G  4 UNID DISP           CNS00000000000011274002000000000000000060000007591016154724          
20300246515TORONTO DISP 324 GR.NESTLE              CNS00002000000045842002000000000000000024000007591016161111          
20300246520TORONTO BOLSA 125G                      CNS00008700000017627002000000000000000048000007591016161128          
20300267800SAMBA FUN SIZE CHOCOLATE 35UND 16G      CNS00000700000049330002000000000000000008000007591016855539          
20300267810NESTLE AMOR WAFER VAINILLA 16 PAQ X 21G CNS00000000000008813000000000000000000024000007591016155271          
20302300075CRI-CRI CHOC 27GR X 12 UNID             CNS00001700000038181002000000000000000024000007591016151556          
20302300077CRI-CRI CHOC CON ARROZ 123G X 5 UNID    CNS00000200000056150002000000000000000016000007591016151600          
20302300079CRI-CRI CHOC 27GR X 4 UNID              CNS00000000000009966000000000000000000068000007591016155400          
20400000015SOPA DE POLLO C/FIDEOS 65G X 12 SOBRES  CNS00000000000000379000000000000000000012000007591016007228          
20400000017SOPA DE VEGETALES CON PASTA MAGGI 62GR XCNS00000000000036562000000000000000000006000007591016205617          
20400000020SOPA COSTILLA C/FIDEOS 50GR X 12.NESTLE CNS00000000000036562000000000000000000006000007591016007662          
20400000025SOPA DE POLLO CON ARROZ (12 X 65GR).    CNS00000000000003573000000000000000000006000007591016007235          
20400000030SOPA DE POLLO C/FIDEOS 62GR X 12.NESTLE CNS00000000000036562000000000000000000001000007591016204894          
20400047606CALDO DE POLLO 138G LLEVA 12 Y PAGA 10 CCNS00000000000006353000000000000000000024000007591016205693          
20400047607CALDO  DE POLLO MAGGI 184G X 16 CUBITOS CNS00000000000010682000000000000000000024000007591016006634          
20400047608CALDO DE COSTILLA 88GR X 8 CUBITOS      CNS00000000000006197000000000000000000048000007591016006023          
20400047609CALDO DE POLLO MAGGI 92G X 8 CUBITOS    CNS00000000000006197000000000000000000048000007591016006627          
20400100635NESCAFE BEBIDA ACHOCOLATADA 1.6G SAVOY  CNS00000400000144939002000000000000000012000007591016203385          
20400100638LECHE CONDESADA 395G NESTLE             CNN00003800000010807002000000000000000048000007891000107263          
20400100639LECHE CONDESADA 375G NESTLE             CNN00000000000008938000000000000000000048000007506475106238          
20400144560LECHE EVAPORADA CARNATION 395G          CNS00000000000008315000000000000000000001000007613036653404          
20400144565CREMA DE LECHE UHT 1LITRO NESTLE        CNS00000000000003040000000000000000000012000007891000121702          
20400174250NESCAFE TRADICION DAWN JAR INSTANTANEO 1CNS00001200000029150002000000000000000012000007702024005803          
20400175220NESCAFE MOKACCINO VENDING 1.3KG         CNS00000900000124198002000000000000000006000007591016008669          
20400175225NESCAFE VAINILLA VENDING 1.3KG          CNS00000600000124198002000000000000000006000007591016013083          
20400175230NESCAFE CAPUCCINO VENDING 1.3KG         CNS00000700000124198002000000000000000006000007591016008690          
20400175240NESCAFE CAFE CON LECHE 300G             CNS00001300000020835002000000000000000012000007891000006290          
20400175245NESCAFE TRADICION DAWN 85G              CNS00000000000014637000000000000000000018000007702024005780          
20400175247NESCAFE TRADICION DAWN 25G              CNS00000000000005014000000000000000000001000007702024026372          
20400211605PURE DE PAPAS ORIGINAL 125G.NESTLE.     CNS00000000000000275000000000000000000012000007613034497062          
20430000625CREMA DE LECHE NESTLE X 300GR.NESTLE    CNS00000000000010308000000000000000000048000007891000005422          
20460263225LECHE NAN OPTI PRO INICIO 400G          CNN00080500000048178002000000000000000024000007501058636584          
20460263226LECHE NAN OPTI PRO HMO3 800G            CNN00000000000062005002000000000000000012000007501058636669          
20460263227LECHE NAN HA EXPERT PRO  400G           CNN00005700000057272002000000000000000012000007613036055253          
20460263228ALFARE HMO SIN LACTOSA 400GR            CNN00000000000090937000000000000000000006000007613038376578          
20460263229LECHE NAN OPTI PRO HMO2 400G            CNN00026400000044379002000000000000000024000007501058636621          
20460263230COLADO GERBER FRUTAS MIXTAS 12 UND X 113CNS00001200000039271002000000000000000024000007506475119269          
20460263240COLADO GERBER BANANA 113G X 12          CNS00000000000039271002000000000000000001000007501058640512          
20460263245COLADO GERBER PURE PERA 113G. X 12      CNS00000800000039271002000000000000000001000007501058640758          
20460263247GALLETA GERBER BEBE 5 SOBRES 14 GR      CNS00002000000009561002000000000000000012000007613036550734          
20460263250COLADO GERBER CIRUELA PASA 113G. X 12   CNS00000000000037371000000000000000000001000007501058640475          
20460263251COLADO GERBER DURAZNO 113G. X 12        CNS00000000000038181000000000000000000001000007501058640482          
20460263252COLADO GERBER PURE MANZANA 113G. X 12   CNS00000800000039271002000000000000000001000007501058640505          
20460263253COLADO GERBER MANZANA 16 POUCH 100G     CNS00000600000063998002000000000000000016000007501058655028          
20460263255COLADO GERBER BANANA 16 POUCH 100G      CNS00000000000063998002000000000000000016000007501058655042          
20460263256COLADO GERBER PERA 16 POUCH 100G        CNS00000300000063998002000000000000000016000007501058655035          
20460263330ALTHERA HMO BAJA EN LACTOSA 400GR       CNN00000000000090937000000000000000000006000007613038383453          
20460263331GERBER NUTRISNACK BANANA Y FRESA 12UND 4CNN00000000000111834000000000000000000012000007891000331613          
20460263332GERBER NUTRISNACK BANANA Y NARANJA 12UNDCNN00000000000111834000000000000000000012000007891000331705          
20470054812CERELAC SACHET  DISP 10 UND X 100 G     CNS00000500000056368002000000000000000008000007591016204559          
20470054820CERELAC SACHET X 400 G.                 CNS00003100000017720002000000000000000024000007591016203729          
20470143782LECHE NAN PRO INICIO 400G               CNN00000000000047150002000000000000000024000007501059227514          
20470143786NAN 1 OPTIPRO 900G                      CNN00000000000092214002000000000000000024000007501058636591          
20470143787LECHE NAN EXPERT PRO CONFORT 400G       CNN00022900000051417002000000000000000012000007613033734441          
20470144550LA CAMPESINA LECHE C/HIERRO 800G        CNN00000000000033198002000000000000000012000007591016205716          
20470144551LA CAMPESINA LECHE C/HIERRO 400 GR      CNN00000000000019091002000000000000000027000007591016206157          
20470144555MOKA DULCE DE LECHE 390G                CNS00000000000008627000000000000000000048000007891000154106          
20470144558LECHE LA CAMPESINA NUTRIRINDE SACHET 400CNN00004500000012364002000000000000000027000007591016205914          
20470144559LECHE NIDO DESLACTOSADA 800G NESTLE     CNN00000000000057272002000000000000000012000008445290478573          
20470144568LECHE NIDO FORTICRECE 800G NESTLE       CNN00005000000040019002000000000000000012000007591016205952          
20470175233NESTUM FE 3 CEREALES SACHET 7SOBRES 50G CNS00000000000023544000000000000000000006000007591016205631          
20470175241NESTUM PBIO 1 FE +ARROZ 225GR.BOLSA     CNS00002300000011554002000000000000000024000007591016204764          
20470175243NESTUM PBIO IRON + ARROZ MAIZ 225G BOLSACNS00000000000011554000000000000000000024000007591016204771          
20470175275NAN SOYA 400G                           CNN0000000000005499800200000000000000000600000050000052790           
20470175276NESTUM PBIO 1 FE + TRIGO-MIEL 225G.BOLS CNS00002700000011554002000000000000000024000007591016204825          
20470175278NESTUM 3 CEREALES BOLSA 225G            CNS00005300000011554002000000000000000024000007591016204801          
20470175279NESTUM 3 CEREALES BOLSA 500G            CNS00002500000023015002000000000000000012000007591016201084          
20470175282LECHE NAN SIN LACTOSA 400G              CNN00026800000051417002000000000000000012000007613034966650          
20470175283CERELAC BOLSA 900G                      CNS00001500000035129002000000000000000012000007591016201244          
20470175420NESTEA LIMON X 12 SOBRES 90G DISP.      CNS00000000000049112000000000000000000012000007591016005965          
20470175422NESTEA PARCHITA X 12 SOBRES 90G DISP.   CNS00000000000049112000000000000000000012000007591016014554          
20470175425NESTEA DURAZNO 90G X 12 SOBRES          CNS00000000000049112000000000000000000012000007591016003671          
20470175429NESTEA TE VERDE CON LIMON 10 SOBRES 48G CNS00000000000035472000000000000000000006000007591016205945          
20470175430NESTEA PARCHITA BOLSA 450 GR.           CNS00000000000017969000000000000000000008000007591016022498          
20470175435NESTEA LIMON BOLSA 450 GR.              CNS00000800000017969002000000000000000008000007591016022474          
20470175440NESTEA DURAZNO BOLSA 450 GR.            CNS00001000000017969002000000000000000008000007591016022481          
20470175450NESTEA DURAZNO 240G                     CNS00000000000009717002000000000000000006000007591016205303          
20470175452NESTEA LIMON 240G                       CNS00000000000009717002000000000000000001000007591016205297          
20470175455NESTEA LIMON LIGHT 800G.                CNS00000000000000023000000000000000000010000007591016203408          
20470175460NESTEA LIMON LIGHT 55GR X 10 UNID.NESTLECNS00000000000035472000000000000000000006000007591016204252          
20470215505RICA CHICHA FORTIFICADA SOBRE 400 GR.   CNS00000000000011367000000000000000000024000007591016202531          
20470215510RICA CHICHA FORT SACHET 162GR X 6       CNS00000000000008595000000000000000000001000007591016203415          
20470236470SVELTY LECHE SEMIDESCREMADA 400G.       CNN00000700000022049002000000000000000018000007591016203606          
20470236472SVELTY DESLACTOSADA 400G                CNN00000000000023015000000000000000000012000007613036669849          
20500000001DOG CHOW ADULTO RAZA PEQUEÑA 1KG        CNS00000000000017845000000000000000000008000007591016603857          
20500000002DOG CHOW ADULTO RAZA MED Y GRANDE 4KG   CNS00000000000062908000000000000000000005000007591102033773          
20500000003K-NINA ADULT POLLO SEL VEGETALES 1KG    CNS00000000000010277000000000000000000008000007591016605165          
20500000004K-NINA ADULT POLLO SEL VEGETALES 2KG    CNS00000800000025506002000000000000000006000007591016605189          
20500000006K-NINA POLLO CON SEL VEGETALES 4KG      CNS00000000000037994000000000000000000005000007591102034176          
20500000007K-NINA ADULTO CARNE CEREAL ARROZ 1KG    CNS00000000000010277000000000000000000008000007591016605158          
20500000008K-NINA CARNE CON CEREAL Y ARROZ 2KG     CNS00000000000019963002000000000000000006000007591102033759          
20500000009K-NINA CARNE CON CEREAL Y ARROZ 4KG     CNS00000000000037994000000000000000000005000007591102034114          
20500000010GATSY CARNE ARROZ Y MAIZ 1KG            CNS00000500000020585002000000000000000008000007591016605769          
20500000011GATSY PESCADO ARROZ Y ESPINACA 1KG      CNS00000000000019589000000000000000000008000007591102034404          
20500000012GATSY CARNE ARROZ MAIZ 500G             CNS00000000000009935002000000000000000012000007591016603987          
20500000013K-NINA CACHORRO 1KG CARNE, CEREALES Y ARCNS00000600000014326002000000000000000008000007591016605448          
20500000014K-NINA ADULTO CARNE, CEREALES Y ARROZ 2KCNS00000700000025506002000000000000000006000007591016605172          
20500000016K-NINA ADULTO POLLO Y SELECCION DE VEGETCNS00000500000046247002000000000000000005000007591016605202          
20500000017K-NINA CACHORRO CARNE, CEREAL Y ARROZ 2KCNS00000200000027904002000000000000000006000007591016605455          
20500000018K-NINA ADULTO CARNE, CEREAL Y ARROZ 4KG CNS00000200000046247002000000000000000005000007591016605196          
20500000019DOG CHOW SIN COLORANTE 2K CACHORROS TODOCNS00000000000038337002000000000000000006000007702521563752          
20500000020DOG CHOW SIN COLORANTE ADULTOS MINIS Y PCNS00000000000036499002000000000000000006000007702521020361          
20500000021DOG CHOW SIN COLORANTE 2KG ADULTOS MEDIACNS00000000000035503000000000000000000006000007702521071509          
20500000022DOG CHOW SIN COLORANTE 4KG ADULTOS MEDIACNS00000600000069822000000000000000000005000007702521104122          
20500000023DOG CHOW ADULTOS 2KG TODOS LOS TAMAÑOS CCNS00000000000031953000000000000000000005000007702521105020          
20500000024DOG CHOW ADULTOS 7+ TODOS LOS TAMAÑOS LOCNS00000000000040922002000000000000000006000007702521104993          
20500000025K-NINA ADULTO CARNE, CEREAL Y ARROZ 8KG CNS00000100000083712002000000000000000001000007591016605424          
20500000026K-NINA CACHORRO 4KG CARNE,CEREALES Y ARRCNS00000000000053161002000000000000000005000007591016605462          
20500000027CAT CHOW ADULTO PESCADO PREBIOTICA 1.5KGCNS00000000000040610002000000000000000006000007702521104801          
20500000028CAT CHOW ADULTO CARNE PREBIOTICA  1.5KG CNS00000000000040610002000000000000000006000007702521104849          
20500000029GATSY PESCADO ARROZ Y ESPINACA 500GR    CNS00000000000009935000000000000000000012000007591016604014          
20500000030CAT CHOW ADULTO PESCADO PREBIOTICA 0.5KGCNS00000000000014544002000000000000000012000007702521104795          
20500000031CAT CHOW GATITOS PREBIOTICOS 0.5KG      CNS00000000000014824002000000000000000012000007702521104740          
20500000032CAT CHOW ADULTO CARNE PREBIOTICA  500G  CNS00000000000014544002000000000000000012000007702521104832          
20500000033CAT CHOW HOGAREÑO PREBIOTICOS 1.5KG     CNS00000000000046652002000000000000000006000007702521104825          
20500000034CAT CHOW ADULTO PESCASDO 85GR           CNS00000000000063407000000000000000000001000007891000244661          
20500000035CAT CHOW ADULTO CARNE 85GR              CNS00000000000063407000000000000000000001000007891000113066          
20500000036CAT CHOW CARNE ESTERILIZADA 85GR        CNS00000000000063407000000000000000000001000007891000240205          
20500000037CAT CHOW PESCADO ESTERILIZADO 85GR      CNS00000000000063407000000000000000000001000007891000244036          
20500000038CAT CHOW GATITOS POLLO  85GR            CNS00000000000063407000000000000000000001000007891000244012          
20500000039DOG CHOW ADULTO POLLO 100GR             CNS00000000000063407000000000000000000001000007891000115657          
20500000040DOG CHOW ADULTO CORDERO100GR            CNS00000000000063407000000000000000000001000007891000115671          
20500000041DOG CHOW ADULTO CARNE 100GR             CNS00000000000063407000000000000000000001000007891000115633          
20500000042DOG CHOW CACHORRO POLLO 100GR           CNS00000000000063407000000000000000000001000007891000115695          
20500000043DOG CHOW CACHORRO CARNE 100GR           CNS00000000000063407000000000000000000001000007891000244746          
10560019762FORMULA ALPHA PRO 1 0-6 MESES 400 GR BALCNN00005700000040081000000000000000000012000007506353200522          
10560019763FORMULA ALPHA PRO 2  6-12 MESES 400 G BACNN00007600000036842000000000000000000012000007506353200539          
10560019764FORMULA ALPHA PRO RICE 0-12 MESES 400 G CNN00006800000047773000000000000000000012000007506353200546          
10560019765FORMULA VIVASSE ALIMENTACION ENTERAL 400CNN00004300000094456000000000000000000012000007506353200553          
20900000005PEDIASURE RPB VAINILLA 220ML ABBOTT     CNS00000000000017969000000000000000000024000008710428020185          
20900000006PEDIASURE POLVO 400 GR  S/VAINILLA ABBOTCNS00001300000105107000000000000000000024000007703186976314          
20900000007GLUCERNA LIQUIDA 237 ML S/VAINILLA ABBOTCNS0000000000002232900000000000000000002400000007703186030283        
20900000008GLUCERNA POLVO 400G S/VAINILLA ABBOTT   CNS0000000000015453100000000000000000002400000007703186031594        
20900000009ENSURE ADV RPB VAINILLA 220ML ABBOTT    CNS0000000000001974500000000000000000001600000008710428018670        
20900000010ENSURE POLVO 400 GR S/VAINILLA ABBOTT   CNS00000800000131174000000000000000000024000008427030003153          
20900000011SIMILAC TOTAL COMFORT  350 GR 0-12 MESESCNN00000700000107567000000000000000000024000008427030007885          
20900000012SIMILAC 1 FORMULA  350 G 0-6 MESES ABBOTCNN00000900000093273000000000000000000024000005099864017298          
20900000013SIMILAC 2 FORMULA  350G  6-24 MESES ABBOCNN00002000000093273000000000000000000024000005099864017304          
20900000014SIMILAC 3 KID FORMULA 350 GR 2 AÑOS ABBOCNN00002200000093273000000000000000000024000005099864017311          
20900000015ISOMIL POLVO 400 GR ABBOTT              CNN0000000000007841800000000000000000002400000008710428018267        
36670090380ENTEREX TOTAL POLVO VAINILLA 400 GRS    CNS0000160000008299200000000000000000001200000612197125000           
36670090385ENTEREX TOTAL POLVO FRESA 400 GRS       CNS0000130000008299202000000000000000001200000612197125208           
36670090386ENTEREX TOTAL LIQUIDO FRESA 237ML 8OZ   CNS0000000000001673200000000000000000001600000612197211260           
36670090387ENTEREX TOTAL LIQUIDO CHOCOLATE 237ML 8OCNS0000000000001673200000000000000000001600000612197211604           
36670090412ENTEREX ABINTRA NARANJA 27 GRS.DELMECA  CNS0000280000003373201500000000000000003000000612197152006           
36670090432ENTEREX DIABETIC POLVO 400 GRS.         CNS0000220000007830701500000000000000001200000612197604505           
36670095000INMUNEX PLUS VAINILLA 131G              CNS0000080000006425201500000000000000002400000612197877770           
36670108200PROTEINEX POLVO 275 GR                  CNS0000330000015393700000000000000000001200000612197500005           
36670118505GLUTAPAK R SOBRE 15G                    CNS0000000000002677200000000000000000005000000612197755559           
36670118507GLUTAPAK-10 SOBRE 15G                   CNS0002870000002650400000000000000000005000000612197711104           
11702033482SALTINES 10PAQ 250GR PUIG               CNS00000600000005325004000000000000000024000007591082000482          
11702034895MARILU VAINILLA TUBULAR 6PAQ 216GR      CNS00008200000004921000000000000000000024000007591082000208          
11702034900MARILU VAINILLA DISPLAY 24 PAQ          CNS00000300000009841000000000000000000006000007591082000222          
11702034905MARILU CHOCO VAINILLA TUB 6PAQ 216GR PUICNS00001100000004921000000000000000000024000007591082000239          
11702034910MARILU CHOCO VAINILLA DISPLAY 24 PAQ    CNS00000100000009841000000000000000000006000007591082000253          
11702034915MARILU CHOCOLATE DISPLAY 24 PAQ         CNS00000500000009935000000000000000000006000007591082000260          
11702034920MARILU CHOCOLATE TUBULAR   216GR  6 PAQ CNS00006600000004921000000000000000000024000007591082000284          
11702034925MARILU FRESA TUBULAR 216GR 6 PAQ        CNS00000000000004889000000000000000000024000007591082004008          
11702034930MARILU FRESA DISPLAY 24 PAQ             CNS00000200000009841000000000000000000006000007591082004015          
11702034935MARIA SELECTA 9PAQ 250GR PUIG           CNS00016000000004516000000000000000000024000007591082000307          
11702034940MINI MARIA BOLSA 200GR                  CNS00007500000004391000000000000000000016000007591082000383          
11702034945NIC-NAC BOLSA16UND 200GR PUIG           CNS00001900000004391000000000000000000016000007591082000673          
11702034948GALLETAS REX BOLSA TOSTADAS  200GR      CNS00000000000003519000000000000000000016000007591082000574          
11702034950LIMON TV TUBULAR 90 GR.                 CNS00000000000002149015000000000000000048000007591082001236          
11702034955ELITE VAINILLA TUBULAR 100 GR           CNS00002300000002429015000000000000000048000007591082001335          
11702034960ELITE CHOCOLATE TUBULAR 100GR           CNS00008300000002429015000000000000000048000007591082001366          
11702034965CHIQUILIN CINNAMON CANELA 16UND 200GR   CNS00000400000005014000000000000000000016000007591082001717          
11702034970CHOCOLATE COOKY CHIPS BOLSA  200GR      CNS00001800000006073000000000000000000016000007591082001977          
11702034975Q-KISS BOLSA 16UND 200GR                CNS00000500000005232000000000000000000016000007591082002035          
11702034976SODA PUIG INTEGRAL X 290GR              CNS00001400000005357000000000000000000024000007591082000161          
11702034980SODA PUIG ENRIQUECIDA 240GR X 10 PAQUETECNS00013000000004858000000000000000000024000007591082000048          
11702034985KATY VAINILLA 4 PAQUETES 128G           CNS00003600000005481000000000000000000020000007591082002516          
11702034986KATY DISPLAY 24 PAQ                     CNS00001000000032607000000000000000000024000007591082002509          
11702034987KATY FAMILIAR  256 GR                   CNS00000000000043507000000000000000000006000007591082002523          
11702034990DELICIAS MARIA 136GR X4 PAQUETES        CNS00001300000006789000000000000000000020000007591082002561          
11702034991DELICIAS MARIA CHOCOLATE DISP X 18PAQ   CNS00000000000030582000000000000000000006000007591082002585          
11702034992FAMILY CLUB 10 30GR PUIG                CNS00002300000005606015000000000000000024000007591082001830          
11702034993MARIA PUIG INTEGRAL 250 GR              CNS00003500000005232005000000000000000024000007591082004336          
11702034994MARIA SIN AZUCAR 250G                   CNS00002700000006447000000000000000000024000007591082004374          
11702034995MARILU MINI VAINILLA 100G               CNS00008800000002460000000000000000000024000007591082004503          
11702034996MARILU MINI CHOCOLATE 100G              CNS00000000000002460000000000000000000024000007591082004527          
10400000001PASTA SINDONI PREMIUM PLUMA 1KG         CNN00000000000005076000000000000000000000000007591674000050          
10400000002PASTA SINDONI PREMIUM VERMICELLI 1/2KG  CNN00000000000002678000000000000000000000000007591674021208          
21400000001TE BIGELOW MANZANILLA 20 GR 20 SOBRES   CNS0000000000002491401000000000000000000600000072310050419           
21400000002TE NEGRO BIGELOW 33 GR 20 SOBRES        CNS000000000000249140100000000000000000060000072310051232            
21400000003TE VERDE CLASICO BIGELOW 25 GR 20 SOBRESCNS0000000000002491400000000000000000000600000072310058477           
21400000004TE VERDE DESCAFEINADO BIGELOW 25 GR 20 SCNS0000020000002553700000000000000000000600000072310052475           
21400000005TE VERDE JENGIBRE + PROBIOTICOS BIGELOW CNS0000000000003011500000000000000000000600000072310008601           
21400000006TE DULCES SUEÑOS BIGELOW 30 GR 20 SOBRESCNS0000000000002553700000000000000000000600000072310050860           
21400000007TE BLACKBERRY CITRUS PLUS ZiINC BIGELOW CNS000000000000293990100000000000000000060000072310010284            
21400000008TE ARANDANOS CON ACAI BIGELOW 41 GR 20 SCNS000000000000199630100000000000000000060000072310010543            
21400000009TE LAVANDA MANZANILLA PROBIOTICOS BIGELOCNS000000000000293990100000000000000000060000072310010918            
21400000010TE FRAMBUESA ( RED RASPBERRY) BIGELOW  3CNS0000000000002491400000000000000000000600000072310888371           
21400000011TE MORA CANELA BALANCE  BIGELOW BENEFITSCNS000003000000301150000000000000000000060000072310010246            
21400000012TE MELOCOTON Y JENGIBRE ESTOMAGO TRANQUICNS0000000000002939901000000000000000000600000072310010215           
21400000013TE ROSA Y MENTA STRESS FREE  BIGELOW 32GCNS0000010000003011500000000000000000000600000072310010277           
21400000014TE ARANDANO ALOE BIGELOW BENEFITS 37GR 1CNS0000000000003011500000000000000000000600000072310010239           
25600000001BABYGAMMA SOYA 400 GR GAMMAFOOD         CNS00000600000099314000000000000000000006000007591285000739          
25600000002ADULTOS MAYORES C/ FIBRA 400 GR GAMMAFOOCNS00000000000099657000000000000000000006000007591285000746          
25600000003CARBO NEUTRO MODULO CALORICO 450 GR GAMMCNS00001000000083930000000000000000000006000007591285000470          
25600000004PULMOGAMMA 400 GR GAMMAFOOD             CNS00000700000111896000000000000000000006000007591285000845          
25600000005ONCOPLUS 400 GR GAMMAFOOD               CNS00000600000097913000000000000000000006000007591285000814          
25600000006CARDIOLIFE 300 GR GAMMAFOOD             CNS00000600000097913000000000000000000006000007591285000869          
25600000007PROKAL MANTECADO L-CARNITINA 400 GR GAMMCNS00000000000114699000000000000000000006000007591285000647          
25600000008PROKAL DIABETICO FIBRA 400 GR GAMMAFOOD CNS00000300000118903000000000000000000006000007591285000661          
25600000009PROKAL GLUTAMINA L-CARNITINA 400 GR GAMMCNS00000000000118903000000000000000000006000007591285000388          
25600000010PROKAL PLUS 400 GR GAMMAFOOD            CNS00000200000111896000000000000000000006000007591285001002          
25600000011CARBO PROTEIN MANTECADO 350 GR GAMMAFOODCNS00000800000100747000000000000000000006000007591285000692          
25600000012GAMMASOY RENAL L-CARNITINA 410 GR GAMMAFCNS00000900000102117000000000000000000006000007591285000678          
25600000013PEDIPLUS SOYA PEDIATRICO 400 GR GAMMAFOOCNS00000500000099314000000000000000000006000007591285000531          
25600000014BIOSURE MANTECADO L-CARNITINA 400 GR GAMCNS00000600000099314000000000000000000006000007591285000517          
36660090400ENTEREX DIABETIC VAINILLA 8OZ  237ML    CNS0000000000002074800000000000000000001600000612197640169           
36660090401ENTEREX TOTAL LIQUIDO VAINILLA 237ML 8OZCNS0000000000001673200000000000000000001600000612197211161           
36660090402ENTEREX PROTICAL 420 GR                 CNS0000190000017602400000000000000000001200000612197160001           
40700026510CHOCOLATE OSC 70% PASSION N DISP 32GX12 CNS00000300000049392000000000000000000012000007591720029943          
40700026515CHOCOLATE PASSION 56% 12UND DISPLAY 32G CNS00000500000047026000000000000000000012000007591720029967          
40700026525CHOCOLATE DE LECHE SIN AZUCAR 30G ST MORCNS00000000000062130000000000000000000012000007591720627323          
40700026527CHOCOLATE DE LECHE SIN AZUCAR 100G ST MOCNS00000800000070570000000000000000000012000007591720031250          
40700026528VITTALE LECHE COMPLETA 360GR ST MORITZ  CNN00000000000012706000000000000000000015000007598031000098          
40700026529CHOCOLATE BARKI LATES 180G ST MORITZ    CNS00000000000009218000000000000000000012000007591720032073          
40700026530CHOCO LATTE CHOCOLATE LECHE DISP 32GX12 CNS00001000000039489000000000000000000012000007591720031601          
40700026532CHOCOLATE BARKI LATES  BLANCO 180G ST MOCNS00000000000009218000000000000000000013000007591720032240          
40700026535CHOCO LATTE CHOCOLATE C/GALL DIS 32GX12 CNS00001100000033883000000000000000000012000007591720031649          
40700026537CHOCOLATE ASTRO LATES DISPENSADOR 12X30GCNS00000300000032451000000000000000000004000007591720031892          
40700026539VITTALE LECHE DESCREMADA 360GR ST MORITZCNN00000900000012706000000000000000000015000007598031000104          
40700026540CHOCOBLANC 12UND 32G DISPLAY MORITZ     CNS00000000000035908000000000000000000012000007591720031854          
40700026550CHOCOLATE FROGGIE BOLSA 80GR            CNS00000000000005855000000000000000000024000007591720030635          
36660090421ENTEREX HEPATIC VAINILLA 110 GR         CNS0000050000008165402000000000000000002400000612197944441           
36660090422ENTEREX RENAL VAINILLA 237 ML           CNS0000000000003212600000000000000000002400000612197333337           
36660090423DAVINTEX 90MG 10COMP REC                MNN0000000000002192200000000000000000027000000                       
40700037630BOMBONERA NAVIDAD 115GX8 BOMBONES ST M  CNS00000000000007093000000000000000000001000007591720031359          
36660090420DAVINTEX 60MG  10 COMP REC              MNN0000000000001322800000000000000000027000000                       
28810032681X RUBLOX 20MG  30 TAB REC BONIFICACION BMNN0000000000000000100000000000000000002400000B7591243845860         
10000241450TERMOMETRO ORAL CAJA X 12               CNS00001300000151273000000000000000000035000007591075000796          
10000241460TERMOMETRO RECTAL CAJA X 12             CNS00000400000140165000000000000000000001000007591075000802          
25720141450LACTOVAC PEDIATRICO 12ML SUSPENSION     MNS00021400000018349000000000000000000001000007596855001031          
25720141460LACTOVAC AD 12ML SUSPENSION             MNS00013300000018349000000000000000000001000007596855000027          
25720141461HIDRALIT SABOR COCO 500 ML              MNS00009600000012017000000000000000000006000007596855000010          
25720141462HIDRALIT SABOR FRESA 500 ML             MNS00009600000012017000000000000000000006000007596855000034          
25720141463HIDRALIT SABOR UVA 500 ML               MNS00009600000012017000000000000000000006000007596855000041          
21400000015JABON INTIMO DELICATE BLOSSOM 266 ML SUMCNS000000000000250900100000000000000000120000041608870398            
21400000016JABON INTIMO SENSIBLE 266 ML SUMMERS EVECNS0000000000002509001000000000000000001200000041608870497           
21400000017SPRAY INTIMO DESODORANTE TROPICAL RAIN 5CNS0000000000002063501000000000000000002400000041608001334           
21400000018SPRAY INTIMO DESODORANTE BABY POWDER 56,CNS000000000000206350100000000000000000240000041608001303            
21400000019SPRAY INTIMO ULTRA DESODORANTE 56,7 GR SCNS000000000000206350100000000000000000240000041608001310            
21400000020SPRAY INTIMO ISLAND SPLASH DESODORANTE 5CNS000000000000206350100000000000000000240000041608001327            
10560019725SUEROLITO S ORAL COCO 75MEQ 400ML BALKERMNN00037100000010581000000000000000000024000007597767000013          
10560019730SUEROLITO S. ORAL FRESA 75MEQ 400ML BALKMNN00054200000010581000000000000000000024000007597767000020          
10560019735SUEROLITO S. ORAL UVA 75MEQ 400ML BALKERMNN00064500000010581000000000000000000024000007597767000037          
10560019740SUEROLITO S. ORAL CHICLE  75MEQ 400ML BAMNN00039500000010581000000000000000000024000007597767000334          
10560019741SUEROLITO S. ORAL MANDARINA 75MEQ 400ML MNN00042000000010581000000000000000000024000007597767000327          
10560019742SUEROLITO SOL. ORAL FRUIT PUNCH 75MEQ 40MNN00071700000010581000000000000000000024000007597767000358          
10560019743SUEROLITO SOL. ORAL MANZANA 75MEQ 400ML MNN00057700000010581000000000000000000024000007597767000341          
10560019744CLORURO DE SODIO AL 0,9% 500ML BC BALKERMNN00096700000003224000000000000000000024000007597767000068          
10560019745CLORURO DE SODIO AL 0,9% 250ML BC BALKERMNN00010100000004807000000000000000000060000007597767000051          
10560019746CLORURO DE SODIO AL 0,9% 100ML BC BALKERMNN00088400000004338000000000000000000080000007597767000044          
10560019747SOLUCION ISOTONICA AL 0,9% 3000ML BC BALMNN00000000000028842000000000000000000004000007597767000884          
10560019748CLORURO DE SODIO AL 0,45% 500ML BC BALKEMNN00000000000006009000000000000000000024000007597767000914          
10560019749CLORURO DE SODIO-DEXTROSA 0,45% 5% 500MLMNN00021300000004514000000000000000000024000007597767000105          
10560019750SOLUCION DEXTROSA 5% 50ML BC BALKER     MNN00000000000002345000000000000000000080000007597767000907          
10560019751SOLUCION DEXTROSA  5% 100ML BC BALKER   MNN00000000000002814000000000000000000080000007597767000891          
10560019752SOLUCION DEXTROSA  5% 250ML  BC BALKER  MNN00000000000003048000000000000000000060000007597767000945          
10560019753SOLUCION DEXTROSA  5% 500ML BC BALKER   MNN00000000000005862000000000000000000024000007597767000082          
10560019754AGUA ESTERIL PARA DILUIR  500ML BC BALKEMNN00005100000006009000000000000000000024000007597767000921          
10560019755GLICINA SOL IRRIGACION 3000ML BC BALKER MNN00000000000028138000000000000000000004000007597767000938          
10560019756MEROPENEM 1000MG I.V MERONUS VENUS      MNN000303000000196970000000000000000003630000018907010003986         
10560019757CEFTAZIDIMA 500MG I.V EFECTIN BALKER    MNN000000000000096730000000000000000004000000018907010009322         
10560019758RINGER LACTATO 500ML BC BALKER          MNN00040700000004719000000000000000000024000007597767000075          
10560019759PRANZOLID-LINEZOLID 600MG 300MLBALKER   MNN00000000000018759000000000000000000025000007597767000785          
10560019760CEFTRIAXONA 1000MG 10 VIALES IMMUNOX  BAMNN000000000000140690000000000000000003600000018907010002156         
10560019761SUEROLITO SOLUCION ORAL COMBO 6 SABORES MNN000000000000634290000000000000000003600000027597767000970         
11800000005PAPEL HIGIENICO BLOOM PURPURA 4 ROLLOS 5CNS0000000000001222300000000000000000012000000781159412998           
11800000010TOALLAS SANITARIAS LULUBLU NORMAL C/ALASCNS0000000000000533500000000000000000010000000781159413094           
11800000015TOALLAS SANITARIAS LULUBLU NOCTURNAS C/ACNS0000000000000571600000000000000000010000000781159413100           
11800000020TOALLAS HUMEDAS GIOTTO 80P              CNS0000000000000556900000000000000000009600000781159413117           
36670118508FOTORRETIN COLIRIO 5 ML MEGALABS        MNN00037700000034646000000000000000000300000007795368001693          
36670118509BOLARIA 16MG 20COMP BETAHISTINA MEGALABSMNN00010300000030236010000000000000000168000007460536573745          
36670118510CLAVUMOX PLUS 875/125MG16COMP REC MEGALAMNN00011300000059213000000000000000000128000005600360013976          
36670118511BOLARIA 16MG 60COMP BETAHISTINA MEGALABSMNN00006000000071811000000000000000000063000007460536573639          
37210000105COLCHICINA 0,5 MG 300 TAB LAPROFF       MNN00000000000065129030000000000000000001000007703038006640          
37210000106COMPLEJO B 300TAB REC LAPROFF           MNN00000000000058622000000000000000000000000007703038050193          
37210000115PREDNISOLONA 5MG 100TAB LAPROFF         MNN00000000000018231000000000000000000001000007703038067214          
37210000116ISOSORBIDE DINITRATO 10MG 300TAB LAPROFFMNN0000000000006512900000000000000000000100000COFRADIA               
37210004455ALBENDAZOL 200MG 25BLISTER 2TAB LAPROFF MNN000000000000312750000000000000000000010000007703038050056         
37210059005DOXICICLINA 100MG 10CAPS COASPHARMA     MNN00000000000008529000000000000000000001000007703712032552          
37210059006TAXUS  20MG 30 COMP TAMOXIFENO TECNOFARMMNN00000000000042511000000000000000000001000007792219000829          
37210059011METOCLOPRAMIDA 10MG 400TAB LAPROFF      MNN00000000000075563000000000000000000000000007703038050391          
37210059015METOPROLOL 50MG  10 TABL LAPROFF        MNN00000000000003283000000000000000000000000007703038045311          
37210059016METOPROLOL 50MG 30 TABL LAPROFF         MNN00000800000012017000000000000000000000000007703038065272          
37210117605GLIBENCLAMIDA 5MG 30 TAB COASPHARMA QUALMNN00069300000009260008000000000000000001000007703712030855          
37210130026AZTROBAC 200MG/5ML 15ML AZITROMICINA BIOMNN00000000000020840000000000000000000001000007707019313086          
37210269750OMEPRAZOL 20MG 250 CAPS OPHALAC.        MNN00000000000070346000000000000000000001000007707035511428          
37250059010MEROPENEM 1G I.V. 1VIAL VICAR           MNN0000460000002937000000000000000000000100000MEROVICAR              
38010011250DROPIFEM 3-0,02MG TAB REC 28 LAPREVEN   MNN00000000000052384000000000000000000010000007594001564126          
38010011251GESTRELLA 0,075MG TAB REC 28 LAPREVEN   MNN00000000000037092000000000000000000024000007594001564140          
38010011252DROPELLA 3-0,03MG TAB REC 21 GENIA CARE MNN00000000000039742000000000000000000020000007594001564119          
38010011253FEMISTEL 0,15 - 0,03MG TAB REC 21       MNN00000000000014926000000000000000000036000007594001564133          
38010011260EMNORM 500MG 30 TAB REC LAPREVEN        MNN00004700000007466000000000000000000000000008901079006974          
38010011261INOSERT 50MG 10 TAB REC LAPREVEN        MNN00000000000014837000000000000000000000000008901079008756          
38010011262INOSERT 100MG 10 TAB REC LAPREVEN       MNN00000000000023367000000000000000000000000008901079012722          
38010057900AFTEROL 0,75MG TAB REC 2 LAPREVEN       MNN00000000000012296000000000000000000001000007594001564157          
38010057901AMOXICILINA 500MG 10 CAPS LAPREVEN      MNN00008400000009347000000000000000000000000008901079005106          
38010057911CARDOZ 6,25MG 28 TAB LAPREVEN           MNN00000000000008830000000000000000000001000008901079009319          
38010057912CARDOZ 12,5 MG TAB 28 LAPREVEN          MNN00001700000009655000000000000000000001000008901079009326          
38010057913CARDOZ 25 MG TAB 28 LAPREVEN            MNN00001900000013979000000000000000000001000008901079009333          
38020164390MOXICON 5ML SOLUCION OFTALMOLOGICA MOXIFMNN00000000000010076000000000000000000044000008908006972197          
38020164391TIMOLOL 10ML SOL.OFTAL 0,5%             MNN00000000000009644000000000000000000014000008908006972289          
38050057910CIPROFLOXACINA 200MG/100ML BACIPRO      MNN00000000000000438000000000000000000001000008907695035114          
38050164390METRONIDAZOL 0.5% IV X 100 ML METRIS    MNN00000000000002345000000000000000000001000008907695041085          
39900040025VENDA ELASTICA EBEN 5CM X 2M.           CNS00000000000000002000000000000000000012000007595492000193          
39900040030VENDA ELASTICA EBEN 15CM X 2M           CNS000000000000000020000000000000000000120000039900040030            
39900040035VENDA ELASTICA EBEN 20CM X 2M           CNS00000000000000003000000000000000000012000007595492000223          
39900040040VENDA ELASTICA ECONOMICA EBEN 5CM X 1M  CNS000000000000000020000000000000000000120000016                     
39900040045VENDA ELASTICA ECONOMICA EBEN 10CM X1M  CNS000000000000000020000000000000000000120000017                     
39900040050VENDA ELASTICA EBEN ECONOMICA 15CM X 1M CNS000000000000000020000000000000000000120000018                     
39900040055VENDA ELASTICA EBEN ECONOMICA 20CM X 1M CNS000000000000000020000000000000000000120000019                     
39900113830GASA CLINICA N/ESTERIL ECONOMICA 1,2m.EBCNS00000000000000002000000000000000000012000007595492000070          
39900113835GASA SUPERCLINICA N/EST ECON 2.40M      CNS0000000000000000200000000000000000001200000595492000087           
39900113855GASA PRACTICA EBEN NO ESTERIL 60CM.     CNS00000000000000002000000000000000000012000007595492000049          
39900113860GASA CLINICA EBEN NO ESTERIL 1,2M.      CNS00000000000000002000000000000000000012000007595492000056          
39900113868GASA SUPERCLINICA EBEN N/EST 2.40M      CNS00000000000000003000000000000000000012000007595492000063          
39900257175VENDA ELASTICA EBEN 10CM X 2M           CNS00000000000000002000000000000000000012000007595492000209          
39930078705VASELINA EBEN 30 GR.ARIAS EBENEZER      CNS00000000000000002000000000000000000012000007595492000186          
39930078715VASELINA EBEN 50G.ARIAS EBENEZER        CNS000000000000000020000000000000000000120000039930078715            
39930087140GEL PARA CABELLO 120 CC.ARIAS EBENEZER  CNS00000000000000002000000000000000000012000007591885002966          
40230178525NIOSILIN UNG 20G VARGAS                 MNN00012700000018057018000000000000000030000007592349001693          
40300000099CHICCO EXTRACTOR DE LECHE MANUAL UND    CNS00000000000172758005000000000000000002000008058664024001          
40300000100CHICCO BIBERON NIÑA F LENTO 150ML UND   CNS00000000000025940000000000000000000006000008058664129447          
40300000101CHICCO BIBERON NIÑO F LENTO 150ML UND   CNS00000000000025940000000000000000000006000008058664129454          
40300000102CHICCO CEPILLO P/BIBERONES 3 EN 1 UND   CNS00001000000027757021000000000000000006000008003670797456          
40300000103CHICCO SET CEPILLO Y PEINE AZUL UND     CNS00000000000030220005000000000000000006000008058664011933          
40300000104CHICCO SET CEPILLO Y PEINE ROSADO UND   CNS00000000000030220005000000000000000006000008058664011926          
40300000105CHICCO SET TIJERAS P/UÑAS BEBE ROSADO UNCNS00001400000021602018000000000000000006000008058664009916          
40300000106CHICCO SET TIJERAS P/UÑAS BEBE AZUL UND CNS00001200000020606019000000000000000006000008058664009923          
40300000107CHICCO BIBERON NIÑO GRIS F MED 250ML UNDCNS00000000000027845000000000000000000006000008058664129485          
40300000108CHICCO MORDEDOR SUAVE VERDE 2M+  UND    CNS00000300000023302022000000000000000006000008058664143436          
40300000109CHICCO MORDEDOR SUAVE NEUTRO 2M+ UND    CNS00000200000023302025000000000000000006000008058664143429          
40300000110CHICCO MORDEDOR SUAVE ROSADO 2M+ UND    CNS00000800000023302022000000000000000006000008058664143412          
40300000111CHICCO CHUPON SUAVE AZUL 6-16M UND      CNS00000000000021719025000000000000000006000008058664051892          
40300000112CHICCO CHUPON SUAVE ROSA 6-16M  UND     CNS00000000000022775000000000000000000006000008058664051885          
40300000113CHICCO CHUPON SUAVE AZUL 0-6M UND       CNS00000000000021719005000000000000000006000008058664051861          
40300000114CHICCO CHUPON SUAVE ROSA 0-6M UND       CNS00000000000021719025000000000000000006000008058664051854          
40300000115CHICCO BIBERON  NIÑA F MED 250ML UND    CNS00000200000029282025000000000000000006000008058664129461          
40300000116CHICCO CHUPON SUAVE NAT 6-16M UND       CNS00000000000021719025000000000000000006000008058664051830          
40300000117CHICCO CHUPON SUAVE NAT 0-6M UND        CNS00000000000021719025000000000000000006000008058664051823          
40300000118CHICCO BIBERON  NIÑO AZUL F MED 250ML UNCNS00000200000027845025000000000000000006000008058664129478          
40300000119CHICCO TETINA PERFECT 0M+ F LENTO 2 UND CNS00000600000020078005000000000000000006000008058664122196          
40300000120CHICCO TETINA PERFECT 2M+ F MED 2 UND   CNS00000600000020078005000000000000000006000008058664122202          
40300000121CHICCO TETINA PERFECT 4M+F RAPID 2 UND  CNS00000700000020078005000000000000000006000008058664122219          
40300000122CHICCO TETINA PERFECT 6M+ F ALIM  2 UND CNS00000400000020078005000000000000000006000008058664122226          
40300000123CHICCO PROTECTORES LACTANCIA 30 UND     CNS00000800000025090025000000000000000012000008003670845843          
40300000129CHICCO BIBERON NIÑO VERDE F MED 250ML UNCNS00000000000027845000000000000000000006000008058664166220          
40300000130CHICCO BIBERON NIÑA BLANCO F MED 250ML UCNS00000000000027845000000000000000000006000008058664166213          
40300000131CHICCO BIBERON UNI NARANJA F MED 250ML UCNS00000000000027845000000000000000000006000008058664166237          
40300000132CHICCO BIBERON NIÑO VERDE F LENT 150ML UCNS00000000000025940000000000000000000006000008058664166206          
40300000133CHICCO BIBERON NIÑA BLANCO F LENT 150ML CNS00000000000025940000000000000000000006000008058664166190          
40300001515ACTIVA SEC TS PERD MUY ABUND 10TOALLAS  CNS00000000000006067003000000000000000012000007591353680559          
40300001520ACTIVA SEC PERDIDAS ABUNDANTES X 10.    CNS00002400000006067003000000000000000012000007591353680542          
40300001521ACTIVA SEC PERD ABUND PROM 16UND+4UND   CNS00000800000009673003000000000000000006000007591353680252          
40300001522ACTIVA SEC PERD OCAS PROM 60UND +20UND  CNS00000900000011285003000000000000000006000007591353680269          
40300001523ACTIVA ROPA INTERIOR DESECH S/M 10UNID  CNS00000000000027347000000000000000000010000007591353700080          
40300001524ACTIVA ROPA INTERIOR DESECH L/XL 10UNID CNS00000000000029897000000000000000000010000007591353680276          
40300002500CHICCO TALCO 200G.                      CNS00000000000014040000000000000000000024000007591061660263          
40300002501CHICCO TALCO BABY SKIN  200 GR          CNS00000400000014040003000000000000000024000007591061640166          
40300002502CHICCO COTONCITO BABY SKIN 100 HISOPOS  CNS00000000000003517003000000000000000032000007591061640258          
40300002510CHICCO COTONCITO 60 HISOPOS             CNS00000000000003136000000000000000000048000007591061521441          
40300002511CHICCO COTONCITO BABY SKIN 60 HISOPOS   CNS00007800000003136003000000000000000048000007591061640272          
40300002512CHICCO COTONCITO 100P                   CNS0000000000000351700000000000000000003200000728417618068           
40300002602CHICCO TALCO PROMO 200GR +100GR BABY SKICNS00000100000014040003000000000000000012000007591061640318          
40300002603CHICCO COTONCITO BABY SKIN 180 PAGA 120 CNS00001900000006302003000000000000000016000007591061640234          
40300025484CHICCO LOCION VITAMINA E 200 CC.        CNS00000000000010581000000000000000000010000007591061660218          
40300026455CHICCO LOCION 200ML BABY SKIN           CNS00002700000010581002000000000000000010000007591061640135          
40300026480CHICCO TH CON PROTEINA TRIGO  48 UND    CNS00000000000004660000000000000000000020000007591061501047          
40300026481CHICCO TH PROTEINA TRIGO BABY SKIN 24 UNCNS00000000000002697003000000000000000040000007591061640128          
40300026482CHICCO COLONIA 100 CC.                  CNS00000000000003312000000000000000000024000007591061647417          
40300026483CHICCO LOCION 100 CC.                   CNS00000100000006155003000000000000000024000007591061660201          
40300026484CHICCO COLONIA 200 CC.                  CNS00000000000005979000000000000000000010000007591061647424          
40300026485CHICCO TH CON PROTEINA DE TRIGO 72 UND BCNS00014800000006742007000000000000000024000007591061400005          
40300026487CHICCO TH ORIGINAL 48 TOALLAS           CNS00000000000004162000000000000000000020000007591061501047          
40300026490CHICCO MOTAS DE ALGODON 100 UNID        CNS0000580000001134301400000000000000001200000728417002584           
40300026491CHICCO VASELINA BABY SKIN 80 GR         CNS00000000000007797003000000000000000016000007591061640371          
40300026493CHICCO ACEITE P/ NIÑOS 220ML            CNS00000900000015124003000000000000000010000007591061640180          
40300026495CHICCO X 50 MOTAS DE ALGODON            CNS00000000000003283000000000000000000012000007591061521304          
40300026499CHICCO COLONIA  110 CC.                 CNS00000000000007005003000000000000000024000007591061647264          
40300026500CHICCO COLONIA BABY SKIN 220ML          CNS00000600000012780003000000000000000010000007591061640173          
40300026600CHICCO TH PROTEINA TRIGO BABY SKIN 48 UNCNS00010300000004660003000000000000000020000007591061640081          
40300026699CHICCO JABON LIQ 400ML                  CNS00000000000020957000000000000000000010000007591061640449          
40300026791CHICCO PAÑAL TALLA XG REG 20UND         CNS00001000000015476003000000000000000008000007591353516308          
40300026798CHICCO PAÑAL TALLA M REG 20UND          CNS00000400000013923003000000000000000008000007591353516100          
40300026799CHICCO PAÑAL TALLA G REG 20UND          CNS00000700000014978003000000000000000008000007591353516209          
40300031577AMY ACEITE  P/ BEBES 220CC              CNS00000400000012047003000000000000000010000007591061403365          
40300031580AMY COLONIA P/BEBES 220G                CNS00001500000010054003000000000000000010000007591061508176          
40300031582AMY LOCION 200 CC                       CNS00001900000007797003000000000000000010000007591061399989          
40300031585AMY TALCO 200G                          CNS00004400000013249003000000000000000024000007591061400142          
40300031590FRIENDS TS NOCTURNA SIN ALAS 10UND      CNS00000200000006097003000000000000000012000007591353701711          
40300031595SECUREZZA BC CREMA DERMO PROTECTORA 130GCNS00001000000016824000000000000000000012000007591061650370          
40300031612AMY HISOPOS X 60                        CNS00008900000002843003000000000000000048000007591061400111          
40300031614AMY MOTAS DE ALGODON X 50 UNID.PHARSANA CNS00002400000005774003000000000000000012000007591061399958          
40300031615AMY SEC TH MANZANILLA X 72              CNS00000300000004514003000000000000000024000007591061503058          
40300066553PAÑAL SIEMPRE SECO M AD X 6             CNS00028000000012985006000000000000000006000007591353699001          
40300109713FRIENDS PROTECTORES DIARIOS 60 UND.PHARSCNS00000000000008060003000000000000000012000007591353701506          
40300109715FRIENDS PROTEC DIAR REG S/P X 40        CNS00000900000006595003000000000000000012000007591353701490          
40300109720FRIENDS PD MANZANILLA X 40              CNS00001800000006742003000000000000000012000007591353701391          
40300109725FRIENDS TS TELA REGULAR X 14TOALLAS     CNS00000000000005862003000000000000000012000007591353701872          
40300109730FRIENDS TS MALLA REGULAR X 14           CNS00006500000005862000000000000000000012000007591353701858          
40300192710PAÑALES SIEMPRE SECO T- G X 6 ADULTO    CNS00027700000014333007000000000000000006000007591353699018          
40300223107SECUREZZA BODYCARE ACEITE CREMOSO 200CC CNS00000000000007826000000000000000000010000007591061650141          
40300223108SECCUREZZA BODYCARE LOC HIDRAT 200CC    CNS00000000000008442000000000000000000010000007591061650127          
40300223110SECUREZZA TOALLAS POST PART PREMIUM X10 CNS00000000000005774003000000000000000012000007591353700059          
40300223115SECUREZZA TOALLA POST PARTO X 10 UNID   CNS00000000000005569005000000000000000012000007591353700028          
40300223116SECUREZZA TOALLA POST PARTO MEGA PACK 15CNS00023000000006976003000000000000000012000007591353516605          
40300223117SECUREZZA COMFORT TALLA M 6UND          CNS00005300000017293003000000000000000006000007591353515103          
40300223118SECUREZZA COMFORT TALLA L 6UND          CNS00004100000020371003000000000000000006000007591353515202          
40300223120SECUREZZA CLASS L REG X 6               CNS00014300000018935007000000000000000006000007591353515011          
40300223130SECUREZZA CLASSIC M REG X 6             CNS00003700000016062006000000000000000006000007591353515004          
40300223133SECUREZZA M 10 PANTS DESECHABLE         CNS00000000000034499005000000000000000004000007591353515400          
40300223134SECUREZZA L 10 PANTS DESECHABLE         CNS00000000000038778000000000000000000004000007591353515509          
40300223135SECUREZZA PROTECTOR DE CAMA X 10        CNS00003600000019081003000000000000000006000007591353515707          
40300300012NEOBABY TALLA M 10 PAÑALES              CNS00000000000005510010000000000000000012000007591353801268          
40300300014NEOBABY TALLA G 10PAÑALES               CNS00000000000006331010000000000000000012000007591353801275          
40330023112SECCUREZA BODYCARE GEL INTIMO 200CC     CNS00000000000005774000000000000000000010000007591061650158          
40330026482ALGODON LADY FACE DISCOS 80P            CNS00001000000006917003000000000000000024000007591061021279          
40330026499CHICCO GEL ANTIBACTERIAL 100CC          CNS00000000000004895000000000000000000024000007591061660508          
40330031586SECUREZZA BODYCARE TH GRANDES 54UND     CNS00000000000006390003000000000000000012000007591061650301          
40330031587SECUREZZA BODYCARE LOC HIDRAT 350 ML    CNS00001700000017821000000000000000000012000007591061650318          
40330063820JABON ANTIBACTERIAL 220CC PHARSANA      CNS00000000000008793000000000000000000010000007591061650394          
40330176375MASCARILLA DESCARTABLE 50UND PHARSANA   CNS00000000000010464000000000000000000008000007591061648131          
40330176376MASCARILLA DESCARTABLE 5UND PHARSANA    CNS0000000000000205200000000000000000004000000                       
40330176378SPLASH ANTIBACTERIAL 200CC PHARSANA     CNS00000000000007210000000000000000000011000007591061650356          
40330176379TOALLAS HUMEDAS ANTIBACTERIAL 36 UND PHACNS00000000000004514000000000000000000015000007591061641019          
40330176380GEL ANTIBACTERIAL 220CC PHARSANA        CNS00000000000006683000000000000000000010000007591061650363          
40350026502CHICCO CHAMPU MANZANILLA 200ML BABY SKINCNS00000700000010288003000000000000000010000007591061640111          
403S0026492CHICCO CHAMPU MIEL 100 CC.              CNS00000000000004104000000000000000000024000007591061660454          
403S0026493CHICCO CHAMPU MIEL 200 CC.              CNS00000000000011255000000000000000000010000007591061660461          
403S0026495CHICCO CHAMPU MANZANILLA 100 CC         CNS00000200000005950003000000000000000024000007591061660355          
403S0026500CHICCO CHAMPU ORIGINAL 100CC            CNS00002100000005950003000000000000000024000007591061660300          
403S0026505CHICCO CHAMPU ORIGINAL 200ML BABY SKIN  CNS00000800000010288000000000000000000010000007591061650332          
403S0026506CHICCO CHAMPU ORIGINAL 400ML BABY SKIN  CNS00000900000018642003000000000000000010000007591061640302          
403S0026507CHICCO CHAMPU MANZANILLA 400ML BABY SKINCNS00000000000018642000000000000000000010000007591061640425          
403S0026508CHICCO CHAMPU ROMERO 400ML BABY SKIN    CNS00000900000018642003000000000000000010000007591061640432          
403S0026509CHICCO CHAMPU ROMERO 200ML BABY SKIN    CNS00000900000010288003000000000000000010000007591061640388          
403S0031600AMY CHAMPU 100CC                        CNS00000000000001905000000000000000000024000007591061402399          
403S0031605SIEMPRE SECO PROTECTOR DE CAMA 20UND X 9CNS00000000000026468003000000000000000004000007591353700066          
403S0031610AMY CHAMPU 200CC OVAL                   CNS00000000000007386003000000000000000010000007591061399941          
40410000017BROSIDUAL 100/300MG 10CAPS BROM PINAV/SIMNN0000000000002043000000000000000000012000000793869810308           
40410004405FARSENTAL COMP 10/125MG 10 BLIST 10 TAB MNN00000000000012604000000000000000000048000007410000701785          
40410010625POLIFER 50MG 30CAPS HIERRO POLIMALTOSA DMNN00003200000008178000000000000000000020000000793869810513          
40410031705PEPSADEL 87,33MG/5ML SUSP 120ML  SUBSALIMNN00018800000017440000000000000000000220000007410000703956          
40410060440VEROLAX  7,5MG/15ML 10ML  PICOSULFATO SOMNN00003300000021104000000000000000000048000007410000703642          
40410077110SOMNIUM 50MG 240ML SOL ORAL DIFENHIDRAMIMNN00003500000027113000000000000000000048000007410000704304          
40410089485MOTIDEL ENZIMATICO 200/80MG 10TAB REC PAMNN0000000000001058100000000000000000022000000793869810537           
40410117590PEPSADEL 262 MG 12 TAB MAST  SUBSALI BISMNN00003900000017440000000000000000000220000007410000705080          
40410140420SUCRADEL 1GR 10 SOBRES SUCRALFATO DISKAMMNN0000690000001682400000000000000000008000000793869810544           
40410181703TRIMBUTOP 200MG 10COMP TRIMEBUTINA DISKAMNN0000000000001140200000000000000000000100000793869810384           
40410227080FOSFODUAL 48/18GR 45ML FOSFATO MONO/DISOMNN0000000000002857800000000000000000004800000793869810391           
40411061683EXOM 20MG  14CAPS  ESOMEPRAZOL DISKAM   MNN0000000000001055200000000000000000012000000793869810377           
40420000983EXOM 40MG  14CAPS  ESOMEPRAZOL DISKAM   MNN0000000000001392300000000000000000012000000793869810360           
40420023500LAXOPRO 5MG 10COMP REC BISACODILO DISKAMMNN0000000000001201700000000000000000012000000793869810407           
40420132775ANTIAC 10TABL MASTIC ALUMINIO MAGNESIO SMNN0000060000000600900000000000000000002000000793869810438           
40420132776BROCINA 10MG 20TABL BUTILBROMURO DE HIOSMNN00003500000012017000000000000000000020000000793869810506          
40420179605KASTDUO 10MG/5MG 20TABL MONTELUKAST LEVOMNN00008500000008178000000000000000000201000000793869810520          
40420200905PROTOPZOL 20MG 10TABL PANTOPRAZOL DISKAMMNN00001700000003605000000000000000000020000000793869810421          
40430000993PROTOPZOL 40MG 10TABL PANTOPRAZOL DISKAMMNN00003900000004338000000000000000000020000000793869810414          
40430115820ULCETOP 20MG 20TAB FAMOTIDINA DISKAM    MNN00005600000003605000000000000000000020000000793869810476          
40450077805ULCETOP 40MG 20TAB FAMOTIDINA DISKAM    MNN00005900000005276000000000000000000020000000793869810483          
40450164385ZEFIMAX 400MG 6CAPS CEFIXIMA DISKAM     MNN0000490000001105000000000000000000002000000793869810445           
40460010620ELIMINAR                                MNN0000000000000001200000000000000000000100000                       
40460019965ELIMINAR                                MNN0000000000000002300000000000000000000100000                       
40466051623ELIMINAR                                MNN0000000000000002600000000000000000000100000                       
21000000001DERMISA BARRA TE VERDE 85GR             CNS0000000000001779200000000000000000009600000766989000393           
21000000002DERMISA BARRA CARBON 85GR               CNS0000310000001779200000000000000000009600000766989000362           
21000000003DERMISA BARRA HIDRATANTE 85GR           CNS0000150000001779200000000000000000009600000766989000331           
21000000004DERMISA SERUM ILUMINADOR FACIAL 42GR    CNS0000080000003781100000000000000000001200000766989000409           
21000000005DERMISA CREMA ILUMINADORA CORPORAL 42GR CNS0000090000004921300000000000000000002400000766989000157           
21000000006DERMISA CREMA ANTI ARRUGAS CORPORAL 42GRCNS0000210000002939900000000000000000002400000766989000072           
21000000007DERMISA CREMA DE MANOS 85GR             CNS0000000000001691200000000000000000002400000766989000102           
21000000008DERMISA LOCION FACIAL OJOS 15ML         CNS0000040000004683900000000000000000001200000766989000188           
21000000009DERMISA BARRA DE AZUFRE 85GR            CNS0000000000001576900000000000000000009600000766989000133           
21000000010DERMISA CREMA CON VITAMINA E 114GR      CNS0000040000002840200000000000000000002400000766989000058           
21000000011DERMISA CREMA ANTI ESTRIAS  114GR       CNS0000160000002840200000000000000000002400000766989000041           
21000000012DERMISA ACEITE CORPORAL 114GR           CNS0000050000004675100000000000000000001200000766989000201           
21000000013DERMISA SERUM ACIDO HIALURONICO 30ML    CNS0000120000005853400000000000000000001200000766989000416           
21000000014DERMISA BARRA BLAQUEADORA  85GR         CNS0000290000001779200000000000000000009600000766989000164           
21000000015DERMISA BARRA AVENA  85GR               CNS0000000000001239900000000000000000009600000766989000096           
21000000016DERMISA BARRA GLICERINA 85GR            CNS0000060000001239900000000000000000009600000766989000027           
21000000017DERMISA CREMA DESVANECEDORA 50GR        CNS0000000000003162600000000000000000014400000766989000010           
21300000001OMEGA-3 1000MG 100 CAPS NOW             MNN0000470000004690200000000000000000001200000733739100092           
21300000002OMEGA-3 1000MG  45CAPS NOW              MNN0000990000003088900000000000000000001200000733739110411           
21300000003OMEGA 3-6-9 1000MG 100TAB NOW           MNN0000350000006869900000000000000000001200000733739112750           
21300000004GRAVIOLA 500MG 100 CAP  NOW             MNN0000020000006611700000000000000000001200000733739112743           
21300000005MAGNESIUM 400MG 180CAPS NOW             MNN0000250000008884400000000000000000001200000733739012838           
21300000006POTASIUM GLUCONATO 99MG  100TAB NOW     MNN0000170000003719000000000000000000001200000733739108104           
21300000007VIT C-1000MG 100TAB  NOW                MNN0000120000006043400000000000000000001200000733739104977           
